:020000040800F2
:10000000700600204501000867220008010B000867
:1000100015220008510900083928000800000000D6
:10002000000000000000000000000000392500086A
:100030005509000800000000ED220008B526000860
:100040005F0100085F0100085F0100085F01000810
:100050005F0100085F0100085F0100085F01000800
:100060005F0100085F0100085F0100085F010008F0
:100070005F0100085F0100085F0100085F010008E0
:100080005F0100085F0100085F0100085F010008D0
:100090005F0100085F0100085F0100085F010008C0
:1000A0005F0100085F0100085F0100085F010008B0
:1000B000192700085F0100085F0100085F010008C0
:1000C0005F0100085F0100085F0100085F01000890
:1000D0005F0100085F0100085F0100085F01000880
:1000E0005F0100085F0100085F0100085F01000870
:1000F0005F0100085F0100085F0100085F01000860
:100100005F0100085F0100085F0100085F0100084F
:100110005F0100085F0100085F0100085F0100083F
:100120005F0100085F0100085F0100085F0100082F
:10013000DFF80CD000F0DAFB0048004799300008E7
:10014000700600200648804706480047FEE7FEE7A5
:10015000FEE7FEE7FEE7FEE7FEE7FEE7FEE7FEE777
:10016000B926000831010008D2B201E000F8012BE5
:10017000491EFBD270470022F6E710B513460A4627
:1001800004461946FFF7F0FF204610BDF0B480EAA0
:100190000102D40F4200B2EB410F02D202460846E0
:1001A00011464A0042D0C30DDDB2C1F3C752AD1AA9
:1001B000202D35DAC1F3160141F4000204B1524298
:1001C000C5F1200602FA06F12A411044B3EBD05FD4
:1001D00023D0C4B1012DA0EBC35009DCF0BC4FF01B
:1001E000004202EAC352DBB200F5000000F08ABA16
:1001F000400000F1807000EBC350A0F1807040EA35
:10020000D170490009E0490841EAC071A0EBC35030
:1002100000F50000400800EBC350F0BC00F069BAE4
:100220006142012202EB4101001BF6E7F0BC70477E
:1002300081F00041AAE780F00040A7E780EA0102D0
:1002400010B502F00043400022D04A001FD0010E3A
:1002500001EB1261C0F35600C2F3560240F40000F5
:1002600042F40002A0FB022000047F39140400D0F5
:10027000401C50EA124001D44000491EC2B20C0694
:1002800004EBD010401C4008802A02D003E000207C
:1002900010BD20F00100002900DA0020184310BD35
:1002A00030B480EA010202F0004530F0004221F053
:1002B000004013D090B1C30DD40DC2F31601C0F3AA
:1002C0001600E41A41F4000140F400027D3491422A
:1002D00001D3641C00E04900002C02DA30BC00208D
:1002E00070474FF400000023914201D3891A034361
:1002F00040084FEA4101F7D151B1914202D14FF08C
:10030000004105E002D24FF0010101E06FF0010170
:1003100003EBC450284430BC00F0EBB92DE9FE4F8C
:10032000804681EA0300C00F0C46009021F0004196
:1003300023F00045B8EB0200A94105D24046214612
:1003400090461C460B46024623F00040104347D01F
:10035000270DC7F30A00C3F30A510290401A019017
:1003600040286BDAC3F3130040F4801B00989246D8
:1003700020B10023D2EB030A63EB0B0B0198594623
:10038000C0F14002504600F093F906460D46504633
:100390005946019A00F09BF910EB080061410024D6
:1003A00087EA115284EAE7731A4340D0009A62B395
:1003B000019A012A4FEA075215DC001B61EB02018A
:1003C0004FF0004202EA0752CDE90042001C41F51D
:1003D000801132462B4600F0D2F903B0BDE8F08F11
:1003E00040462146F9E7001B61EB0201001C41F584
:1003F000801300185B412018A2F5001747EB03019A
:1004000040EAD570B6196D4111E06D084FEA360625
:1004100045EAC0754FEA0752001B61EB0201001C60
:1004200041F5801149084FEA300000195141324628
:100430002B4603B0BDE8F04F00F092B900980122BE
:1004400040000023D0EB020263EBE07300982146EA
:100450004FEAE074B8EB000061EB0401E9E783F0D8
:1004600000435BE781F0004158E72DE9FE4F81EA48
:10047000030404F0004421F0004100944FF0000B0D
:1004800023F0004350EA01045ED052EA03045BD03B
:10049000C3F30A54C1F30A552C44A4F2F334019473
:1004A000A0FB0254C1F3130141F48011C3F3130301
:1004B00043F4801301FB024400FB034E840A970AB5
:1004C00044EA815447EA8357A4FB076802958D0AE2
:1004D00005FB07854FEA932C04FB0C542705029D6E
:1004E0004FEA065847EA1637B5EB08056EEB070CDE
:1004F000870E920E47EA811742EA8312A7FB020198
:10050000B6EB0B0164EB00042B0D43EA0C335E18D1
:1005100044EB1C50DA465146E7FB0201C5F31304D5
:100520004FEA0B3343EA14534FEA0432019C43EA87
:100530000603A4F10C040294009CCDE900B400F081
:100540001EF903B0BDE8F08F00200146F9E72DE960
:10055000F04D81EA030404F0004B21F000451446FD
:100560004FF0000A23F0004150EA050220D054EA7F
:1005700001021DD0C5F30A570246C5F31303C1F3A8
:100580001300C1F30A5640F4801543F48013A7EB1F
:100590000608101BD64608F2FD3873EB050002D39F
:1005A00008F1010801E092185B41B8F1000F03DA8D
:1005B00000200146BDE8F08D00204FF48011064672
:1005C00084460EE0171B73EB050705D3121B63EB84
:1005D000050306434CEA010C49084FEA3000921823
:1005E0005B4150EA0107EDD152EA030012D082EAE2
:1005F000040083EA0501084305D0101BAB4106D275
:100600000122002306E000224FF0004302E06FF0D9
:10061000010253101AEB06004CEB085110EB0A00D4
:1006200041EB0B01BDE8F04D00F09AB8C10F80EA34
:10063000E0700844CA079623002100F063B800F078
:10064000004230F000400AD0C10D01F56071C0F3E6
:10065000160042EA0151C2084007114370470020CA
:100660000146704701F0004330B421F0004150EAE8
:10067000010206D00A0DA2F56072C1F31301002A2F
:1006800002DC30BC00207047440F44EAC104C100C2
:10069000E01830BC00EBC25000F02BB8002801DBA2
:1006A000C0F10040002901DBC1F1004181427047E7
:1006B000202A04DB203A00FA02F100207047914022
:1006C000C2F1200320FA03F3194390407047202A17
:1006D00006DBCB17203A41FA02F043EAE07306E06A
:1006E00041FA02F3D040C2F120029140084319467A
:1006F00070470029A8BF7047401C490008BF20F080
:100700000100704710B4B0FA80FC00FA0CF050EA17
:10071000010404BF10BC704749B1CCF1200421FA98
:1007200004F411FA0CF118BF012121430843A3EB93
:100730000C01CB1D4FEA00614FEA102042BF0020A0
:1007400010BC704700EBC35010440029A4BF10BC7C
:100750007047401C490008BF20F0010010BC7047E2
:1007600010B5141E73F1000408DA401C41F10001B9
:1007700092185B411A4301D120F0010010BD2DE910
:10078000F04D92469B4611B1B1FA81F202E0B0FA07
:1007900080F220329046FFF78BFF04460F4640EA76
:1007A0000A0041EA0B0153465A46084313D011464A
:1007B00053EA010019D0C8F14002504600F0A8F8F1
:1007C00005460E46504659464246FFF771FF08431C
:1007D00005D0012004E020463946BDE8F08D002018
:1007E000054346EAE0762C4337430A986305E40A5A
:1007F000A0EB08000022FD0A44EA47540A3002D563
:1008000000200146E9E7010510196941DDE90845C5
:1008100000196941BDE8F04DA2E770B521F0004331
:1008200003430CD0C1F30A550024D5EB040564EB57
:100830000403D617AD1AB34102DB0020014670BD98
:10084000201841EB025170BD2DE9F04D00231A46EE
:100850001B1A8A4103DB00200146BDE8F08DC1F37D
:100860000A52C1F3130141F480154FF0000BD10778
:1008700002D100186D41521E0027044640F2FF11BC
:10088000384601EB620A3E468046024600204FF49D
:10089000801100F03DF8C2197141BB1846EB010010
:1008A000B4EB030C75EB000C04D3E41A65EB000504
:1008B00017460E46241908F101006D418046342880
:1008C000E3DDF91946EB0600091BA84103D24FF0FE
:1008D000FF32134601E0002213461BEB070046EBF4
:1008E0000A51BDE8F04DFFF73BBF0000064C074D35
:1008F00006E0E06840F0010394E8070098471034F0
:10090000AC42F6D3FFF718FC6832000888320008C2
:10091000202A04DB203A21FA02F00021704721FA54
:1009200002F3D040C2F120029140084319467047BB
:10093000044B1B680360044B1B680B60034B1B6874
:1009400013607047380000203C0000204000002069
:1009500000BFFEE770472DE9F04102460025002662
:10096000002000230024002791F803C00CF00F059D
:1009700091F803C00CF0100CBCF1000F03D091F8FB
:1009800002C04CEA050591F800C0BCF1000F31D05F
:10099000146800202BE04FF0010C0CFA00F3B1F8C2
:1009A00000C00CEA03069E4220D183004FF00F0CDA
:1009B0000CFA03F7BC4305FA03FC4CEA040491F873
:1009C00003C0BCF1280F06D14FF0010C0CFA00FC5B
:1009D000C2F814C00AE091F803C0BCF1480F05D179
:1009E0004FF0010C0CFA00FCC2F810C0401C0828A3
:1009F000D1D31460B1F800C0BCF1FF0F34DD5468EE
:100A000000202EE000F1080C4FF0010808FA0CF36A
:100A1000B1F800C00CEA03069E4221D183004FF0DA
:100A20000F0C0CFA03F7BC4305FA03FC4CEA040470
:100A300091F803C0BCF1280F05D100F1080C08FAA9
:100A40000CF8C2F8148091F803C0BCF1480F07D12C
:100A500000F1080C4FF0010808FA0CF8C2F81080F9
:100A6000401C0828CED35460BDE8F081F0B50A469A
:100A7000002300240021002500F00046B6F1004FBD
:100A800002D11D4EF16901E01B4E7168C0F30345B0
:100A900083B200F44016B6F5401F08D121F0706112
:100AA000154E766826F07066134F7E6012E000F4F3
:100AB0008016B6F5801F06D1032606FA05F4A14379
:100AC00041F0706106E0460D360103FA06F6B143C7
:100AD00041F0706122B1460D360103FA06F631434A
:100AE00000F00046B6F1004F02D1034EF16101E083
:100AF000014E7160F0BD00000000014001617047CF
:100B000000BFFEE70FB5A5B0FE4801680068FFF71B
:100B100095FB1190FC480168FA480068FFF78EFBCE
:100B20001090FA480168F7480068FFF787FB0F90BC
:100B3000F7480168F3480068FFF780FB0E90F24821
:100B400001680068FFF77AFB0D90F0480168EE48F5
:100B50000068FFF773FB0C90ED480168EA480068F5
:100B6000FFF76CFB0B90E94801680068FFF766FB34
:100B70000A90E7480168E5480068FFF75FFB0990C5
:100B8000E34801680068FFF759FB08902B99084675
:100B9000FFF754FB06902A990846FFF74FFB049095
:100BA00028990846FFF74AFB03900499FFF7EEFAED
:100BB00005900699FFF7EAFA079002F047FA2490A9
:100BC00024992898FFF73AFB289024992A98FFF750
:100BD00035FB2A9024992B98FFF730FB2B902E9908
:100BE0000846FFF72BFB06902D990846FFF726FBDA
:100BF00004902C990846FFF721FB03900499FFF716
:100C0000C5FA05900699FFF7C1FA079002F01EFA9F
:100C1000249024992C98FFF711FB2C9024992D985F
:100C2000FFF70CFB2D9024992E98FFF707FB2E90D1
:100C30000F990B98FFF7AAFA05904FF080402E9974
:100C4000FFF7FCFA04900599FFF7F8FA07900E9960
:100C50000C98FFF7EDFA03904FF080402D99FFF7C5
:100C6000EDFA02900399FFF7E9FA05904FF07C50F6
:100C70000A99FFF7DDFA01900899FFF7D9FA039076
:100C80004FF080402C99FFF7D9FA02900399FFF7B3
:100C9000D5FA04900599FFF779FA06900799FFF7BE
:100CA00075FA239010990998FFF7C2FA05904FF052
:100CB00080402E99FFF7C2FA04900599FFF7BEFA1B
:100CC00007904FF07C500D99FFF7B2FA0190089908
:100CD000FFF7AEFA03904FF080402D99FFF7AEFA80
:100CE00002900399FFF7AAFA05900E990C98FFF766
:100CF0004DFA03904FF080402C99FFF79FFA029035
:100D00000399FFF79BFA04900599FFF73FFA0690C5
:100D10000799FFF73BFA22904FF07C500D99FFF7AF
:100D200087FA03900A99FFF783FA05904FF0804005
:100D30002E99FFF783FA04900599FFF77FFA079041
:100D400010990998FFF722FA03904FF080402D99EF
:100D5000FFF774FA02900399FFF770FA05900F9964
:100D60000B98FFF765FA03904FF080402C99FFF73E
:100D700065FA02900399FFF761FA04900599FFF76D
:100D800005FA06900799FFF701FA21902299084683
:100D9000FFF754FA029023990846FFF74FFA0190A3
:100DA0000299FFF7F3F90390FFF749FCCDE904013D
:100DB00002F0BCF9CDE90601FFF754FC2090219820
:100DC0001F900F990B98FFF733FA4FF0804107906F
:100DD000FFF734FA1E9009991098FFF7D7F94FF0F2
:100DE00080410790FFF72AFA1D900D991198FFF79F
:100DF0001FFA06900A99FFF71BFA07900899FFF768
:100E0000C5F91C900F990B98FFF712FA05904FF057
:100E100080401F99FFF712FA04900599FFF70EFA28
:100E200007904FF07C500A99FFF702FA0390089957
:100E3000FFF7FEF905904FF080402099FFF7FEF98B
:100E400004900599FFF7FAF906900799FFF79EF9C4
:100E50001B9009991098FFF799F905904FF0804081
:100E60001F99FFF7EBF904900599FFF7E7F9079051
:100E70000E990C98FFF7DCF905904FF0804020990F
:100E8000FFF7DCF904900599FFF7D8F90690079968
:100E9000FFF77CF91A904FF07C500D99FFF7C8F9D5
:100EA00003900A99FFF7C4F905904FF080401F990D
:100EB000FFF7C4F904900599FFF7C0F907900B9963
:100EC0000F98FFF763F905904FF080402099FFF7E6
:100ED000B5F904900599FFF7B1F906900799FFF766
:100EE00055F919901A992E98FFF7A8F905901999B4
:100EF0002D98FFF7A3F904900599FFF799F907904A
:100F00001D9907E01C000020200000202400002084
:100F1000280000202B98FFF791F905901C992A983A
:100F2000FFF78CF904900599FFF782F9069007996D
:100F3000FFF72CF9189019992C98FFF77FF9059075
:100F40001B992E98FFF77AF904900599FFF770F92D
:100F500007901C992898FFF771F905901E992B9816
:100F6000FFF76CF904900599FFF762F9069007996D
:100F7000FFF70CF917901B992D98FFF75FF9059073
:100F80001A992C98FFF75AF904900599FFF750F930
:100F900007901E992A98FFF751F905901D992898F6
:100FA000FFF74CF904900599FFF742F9069007996D
:100FB000FFF7ECF8169000211898FFF76FFB69D047
:100FC00000211798FFF76AFB64D000211698FFF7FD
:100FD00065FB5FD097491898FFF730F9964906905E
:100FE000FFF72CF90790954801680798FFF7CEF8AE
:100FF000924908608F491798FFF720F98E490690AB
:10100000FFF71CF907908E4801680798FFF7BEF8B4
:101010008B49086087491698FFF710F986490690B2
:10102000FFF70CF90790874801680798FFF7AEF8BB
:10103000844908604FF080401899FFF7FFF8069048
:101040002599FFF7A3F807907C4801680798FFF7F8
:101050009DF825904FF080401799FFF7EFF8069024
:101060002699FFF793F80790754801680798FFF7EE
:101070008DF826904FF080401699FFF7DFF8069024
:101080002799FFF783F807906E4801680798FFF7E4
:101090007DF827906C4827990068FFF7CFF80590F6
:1010A0006A4826990068FFF7C9F803906848006805
:1010B00080F0004001902599FFF7C0F80290039955
:1010C000FFF7B6F804900599FFF7B2F85A49069071
:1010D000FFF7B4F807905F4801680798FFF756F8E4
:1010E0001590594826990068FFF7A8F805905748C9
:1010F00027990068FFF7A2F80390564801682598E1
:10110000FFF79CF802900399FFF740F804900599C7
:10111000FFF78EF848490690FFF790F807904C4883
:1011200001680798FFF732F814904748016825983E
:10113000FFF784F80590464827990068FFF77EF886
:101140000390444826990068FFF778F802900399C5
:10115000FFF76EF804900599FFF718F836490690E6
:10116000FFF76CF80790394801680798FFF70EF809
:101170001390364801682598FFF760F805903448C9
:1011800026990068FFF75AF80390324827990068BB
:10119000FFF754F802900399FEF7F8FF04900599C1
:1011A000FFF746F824490690FFF748F807902648CD
:1011B00001680798FEF7EAFF129012990846FFF7B8
:1011C0003DF8069013990846FFF738F804901499F3
:1011D0000846FFF733F8029015990846FFF72EF8F6
:1011E00001900299FEF7D2FF03900499FEF7CEFF1B
:1011F00005900699FEF7CAFF079001F027FF24909B
:1012000024991598FFF71AF8124908602499149840
:10121000FFF714F80E49086024991398FFF70EF8A9
:101220000A49086024991298FFF708F806490860EF
:1012300029B000BD0AD7233C6F12833A100000206A
:1012400014000020180000202800002024000020A6
:10125000200000201C00002010B586B004461B486A
:101260001B491C4A1C4BCDE90132CDE903101B4838
:101270001B4B1C4A1C4900901C4800F02BFD1348D6
:10128000016814480068124A1268134B1B68CDE9C4
:101290000132CDE90301114800680090104803684D
:1012A000104802681048016810480068FFF72AFCDF
:1012B0000F48006820600F48006860600E480068B2
:1012C000A0600E480068E06006B010BD4C00002031
:1012D0004800002044000020400000203C00002086
:1012E0003800002034000020300000202C000020B6
:1012F0001C000020200000202400002028000020E6
:101300002DE9F04F87B082467248FFF7A5FF71487C
:10131000C1684FF08040FEF791FF00906D48C168B2
:101320000098FEF78BFF83466A4881684FF0404083
:10133000FEF784FF0090674881680098FEF77EFF03
:1013400059460190FEF774FF81464FF07E51FEF73B
:101350001DFF8046FFF773F906460F465D4801689A
:101360004FF08040FEF76AFF01905A48C16801982B
:10137000FEF764FF8146574841684FF08040FEF712
:101380005DFF0190534881680198FEF757FF83463F
:101390004946FEF7FBFE8046FFF751F932463B46D1
:1013A000CDE9020101F024FD4FF000524A4BCDE996
:1013B0000401FFF75AF80446FFF754F9CAF8080089
:1013C000444801684FF08040FEF738FF03904148E1
:1013D00081680398FEF732FF04903E4841684FF061
:1013E0004040FEF72BFF03903A48C1680398FEF790
:1013F00025FF83460499FEF7C9FE0590FFF71FF904
:10140000064601F0ADFA80464FF00052324BFFF72E
:101410002CF80446FFF726F9CAF804002D48816825
:101420004FF08040FEF70AFF00902A48816800983C
:10143000FEF704FF8346274841684FF04040FEF71F
:10144000FDFE0090234841680098FEF7F7FE5946DC
:101450000190FEF7EDFE81464FF07E51FEF796FEBD
:101460008046FFF7ECF8CDE904011A4801684FF017
:101470008040FEF7E3FE0190164841680198FEF7B0
:10148000DDFE8146134881684FF08040FEF7D6FEAE
:1014900001901048C1680198FEF7D0FE8346494686
:1014A000FEF774FE8046FFF7CAF8CDE90201DDE9D8
:1014B000042301F09DFC06464FF00052064BFEF758
:1014C000D4FF0446FFF7CEF8CAF8000007B0BDE825
:1014D000F08F0000F8000020DCA54C4001B588B07A
:1014E00000F006FFFD490860FD4AFE49FE48FFF78F
:1014F0001FFAFA480068C0680590F8480068C0689C
:1015000004900599FEF79AFE0790F44800688068F9
:101510000390F2480068806802900399FEF78EFEFF
:101520000590EE48006840680190EC48006840680B
:1015300000900199FEF782FE0390E8480068006879
:101540000190E6480068006800900199FEF776FE79
:1015500002900399FEF71AFE04900599FEF768FEC3
:1015600006900799FEF764FEE0490860DB480068D2
:10157000C0680490D9480068006803900499FEF799
:101580005DFE0690D548006880680490D3480068E6
:10159000406803900499FEF751FE05900699FEF706
:1015A000F5FD4FF080410790FEF748FECF494860B7
:1015B000CA48006880680490C848006800680390C2
:1015C0000499FEF73BFE0690C4480068C06804908A
:1015D000C2480068406803900499FEF72FFE05900A
:1015E0000699FEF725FE4FF080410790FEF726FE94
:1015F000BE498860B9480068C0680490B748006870
:10160000006803900499FEF719FE0690B34800683D
:1016100080680490B1480068406803900499FEF720
:101620000DFE05900699FEF703FE4FF080410790EE
:10163000FEF704FEAD49C860A8480068C068059080
:10164000A6480068C06804900599FEF7F7FD07906A
:10165000A248006880680390A048006880680290F3
:101660000399FEF7EBFD05909C48006840680190E7
:101670009A480068406800900199FEF7DFFD0390EA
:1016800096480068006801909448006800680090DF
:101690000199FEF7D3FD02900399FEF7C9FD04906E
:1016A0000599FEF773FD06900799FEF7C1FD8F4976
:1016B00008618A48006840680490884800680068AB
:1016C00003900499FEF7BAFD069084480068C0684C
:1016D000049082480068806803900499FEF7AEFD8C
:1016E00005900699FEF752FD4FF080410790FEF7F6
:1016F000A5FD7E4948617948006880680490774874
:101700000068006803900499FEF798FD06907348FE
:101710000068C068049071480068406803900499AC
:10172000FEF78CFD05900699FEF730FD4FF08041E5
:101730000790FEF783FD6D4988616848006840683E
:10174000049066480068006803900499FEF776FDEF
:10175000069062480068C06804906048006880682D
:1017600003900499FEF76AFD05900699FEF760FD67
:101770004FF080410790FEF761FD5C49C861574812
:101780000068C068059055480068C06804900599D5
:10179000FEF754FD079051480068806803904F4859
:1017A0000068806802900399FEF748FD05904B4859
:1017B00000684068019049480068406800900199BD
:1017C000FEF73CFD039045480068006801904348DF
:1017D0000068006800900199FEF730FD02900399BF
:1017E000FEF726FD04900599FEF722FD0690079965
:1017F000FEF7CCFC3D4908620846006A01460590A8
:1018000037480068FEF71AFD0790384840690146DE
:10181000039034480068FEF711FD05903348806856
:101820000146039030480068FEF708FD04900599D2
:10183000FEF7ACFC06900799FEF7A8FC2C498863DC
:101840002A48C0690146059025480068FEF7F6FC65
:101850000790264800690146039022480068FEF779
:10186000EDFC059021484068014603901E48006841
:10187000FEF7E4FC04900599FEF788FC06900799B2
:10188000FEF784FC1A4908621848806901460590F1
:1018900013480068FEF7D2FC07901448C068014660
:1018A000039010480068FEF7C9FC05900F480068D7
:1018B000014603900C480068FEF7C0FC04900599AF
:1018C000FEF764FC06900799FEF760FC0849886003
:1018D0000846B0F84A0000287CD10BE00000002048
:1018E0000C000020080000200400002080000020E0
:1018F000A80000200846806B0590FEF7A0FECDE909
:1019000006018B49D1E91001CDE90401DDE9062387
:10191000FEF704FD864AC2E910011046006A0590F0
:10192000FEF78DFECDE906018149D1E90A01CDE935
:101930000401DDE90623FEF7F1FC7D4AC2E90A0154
:10194000104680680590FEF77AFECDE906017849D9
:10195000D1E90401CDE90401DDE90623FEF7DEFC4F
:10196000734AC2E904011046B0F84800401C80B236
:101970001146A1F8480064282CDBD1E910010022AF
:101980006C4BCDE90401FEF7E2FDCDE90601FEF75F
:1019900069FE6749C863D1E90A010022654BCDE9B8
:1019A0000401FEF7D4FDCDE90601FEF75BFE6049B8
:1019B0004862D1E9040100225E4BCDE90401FEF743
:1019C000C6FDCDE90601FEF74DFE5949C86001206C
:1019D000A1F84A005648C06B07905548806B0690A6
:1019E0000799FEF725FC524988630846406A07902C
:1019F0000846006A06900799FEF71AFC4C490862EF
:101A00000846C06807900846806806900799FEF768
:101A10000FFC474988600846806B014607904FF0ED
:101A20003F40FEF73BFE0AD24148806B4FF07C51AD
:101A30000790FEF733FE02D200213D4881633C4807
:101A4000006A014607904FF04040FEF727FE0AD299
:101A50003748006A4FF080410790FEF71FFE02D220
:101A600000213348016232488068014607904FF0F8
:101A70004040FEF713FE0AD22D4880684FF08041A7
:101A80000790FEF70BFE02D2002029498860284803
:101A9000806B014606900898FEF7D0FB079024481B
:101AA000406B014606900798FEF770FB204948639B
:101AB0000846006A014606900898FEF7BFFB0790AB
:101AC0001B48C069014606900798FEF75FFB18495E
:101AD000C86108468068014606900898FEF7AEFB8C
:101AE000079013484068014606900798FEF74EFBA2
:101AF0000F4948600846406B014607900898FEF77A
:101B00009DFB0B4908630846C06901460790089889
:101B1000FEF794FB06498861084640680146079035
:101B20000898FEF78BFB0249086009B000BD000071
:101B3000A80000200000594038B500240020009083
:101B40004FF4FA7001F036FA0C222521104600F00D
:101B5000A1FC012263210C2000F09CFC0B22262119
:101B60000C2000F097FC812227210C2000F092FC31
:101B7000642001F01FFA8C2225210C2000F08AFC41
:101B8000002226210C2000F085FC812227210C2038
:101B900000F080FC4FF47A7001F032FA49210C20F9
:101BA00000F016FC0446482C04D14FF4FA7001F002
:101BB00001FA01E000BFFEE70C222521104600F0EB
:101BC00069FC162263210C2000F064FC0A22262105
:101BD0000C2000F05FFC812227210C2000F05AFC31
:101BE0004FF47A7001F00CFA8C2225210C2000F0C1
:101BF00051FC0A2226210C2000F04CFC81222721D6
:101C00000C2000F047FC4FF47A7001F0F9F94921FB
:101C10000C2000F0DDFB0446162C04D14FF4FA70C2
:101C200001F0C8F901E000BFFEE76B460322102176
:101C30000C2000F00FFC9DF8000080301049088057
:101C40009DF80100803048809DF802008030888037
:101C50008C2225210C2000F01DFC4FF47A7001F03D
:101C6000CFF9022226210C2000F014FC8822272123
:101C70000C2000F00FFC4FF47A7001F0C1F938BD70
:101C80006E0000200120014908607047B001224227
:101C90000020014908607047B001224208B50121C7
:101CA000102000F039FB4FF48050ADF800001020F8
:101CB0008DF8030003208DF8020069460448FEF702
:101CC0004AFE4FF480510248FEF718FF08BD00009D
:101CD000001001402DE9F84F04460D4616461F46F8
:101CE000DDE90B9ADDF8288000F092F9964800783B
:101CF00000287DD1FFF7C6FF944800689449B1F9E8
:101D00000010084491490860084640689049B1F9BC
:101D1000021008448D494860084680688C49B1F932
:101D200004100844894988600846C0688849B1F9A8
:101D3000081008448549C860084601698448B0F91C
:101D40000A00084481490861084641698048B0F9A1
:101D50000C0008447D494861142001F02BF97D48AE
:101D60000078401CC0B27B490870642843DB774888
:101D70000068642190FBF1F000B277490880734855
:101D80004068642190FBF1F000B2734948806F48CD
:101D90008068642190FBF1F0C0F5005000B26E49FC
:101DA00088806A48C068642190FBF1F000B26A49FB
:101DB000C88066480069642190FBF1F001B2664872
:101DC000018162484069642190FBF1F001B26248F0
:101DD000418100205F49087001205B490870FFF7CE
:101DE00057FF00205949086048608860C86000E0DB
:101DF00001E0086148615948007830B35649B1F9AB
:101E00000C10554AB2F91220881A00EBD071491013
:101E100009B2514A11831146B1F90E20B1F91410DB
:101E2000501A00EBD07149100AB24B494A83B1F9FC
:101E30001020B1F91610501A00EBD07149100AB2F7
:101E400045498A830020454908704149B1F900009D
:101E5000434900F0E1F90090FEF7E8FB8346414971
:101E6000FEF71EFA38603A49B1F902003C491C31CC
:101E700000F0D2F90090FEF7D9FB83463949FEF70E
:101E80000FFAC8F800003249B1F90400344938317A
:101E900000F0C2F90090FEF7C9FB83463149FEF716
:101EA000FFF9C9F800002A49B1F908002E4900F0ED
:101EB000B3F90090FEF7BAFB83462C49FEF7F0F920
:101EC00020602349B1F90A0027491C3100F0A4F928
:101ED0000090FEF7ABFB83462449FEF7E1F928604A
:101EE0001B49B1F90C002049383100F095F90090F8
:101EF000FEF79CFB83461D49FEF7D2F9306014497A
:101F0000B1F90E001A4900F087F98346FEF78EFBFF
:101F1000CAF800000E49B1F9100015491C3100F053
:101F20007BF98346FEF782FB0D9908600849B1F9F9
:101F300012000F49383100F06FF98346FEF776FB47
:101F40000E990860BDE8F88F6C0000204402002064
:101F50001401002074000020280100206D000020E2
:101F600048010020C7FA50449C01002074CDEA4487
:101F7000F001002010B500247521D02000F028FACF
:101F80000446732C01D0702C40D180226B21D020CC
:101F900000F080FA012001F00DF801226B21D02021
:101FA00000F078FA00226C21D02000F073FA0222AF
:101FB0001A21D02000F06EFA00221921D02000F062
:101FC00069FA10221B21D02000F064FA08221C219B
:101FD000D02000F05FFA00221D21D02000F05AFA34
:101FE00030223721D02000F055FA4D222421D02074
:101FF00000F050FA30226A21D02000F04BFA012084
:1020000000F0D8FFFFF798FD002010BD0120FCE78D
:1020100000B587B0182101A8FEF7ADF801AB162274
:102020003B21D02000F016FA9DF805009DF8041021
:1020300040EA012074490988401A00B273490880B7
:102040009DF807009DF8061040EA01206E49498876
:10205000401A00B26D4948809DF809009DF80810AB
:1020600040EA012068498988084400B267498880AD
:102070009DF80B009DF80A1040EA012000B2634968
:10208000C8809DF80D009DF80C1040EA01205E49C3
:10209000C988401A00B25D4908819DF80F009DF87B
:1020A0000E1040EA012158480089081A01B2574829
:1020B00041819DF811009DF8101040EA012152481D
:1020C0004089081A01B2514881819DF8120000F040
:1020D000010020B19DF8120000F0020008B107B025
:1020E00000BD9DF8190000F0800000B1F7E79DF8F1
:1020F00013009DF8141040EA012000B24349C88142
:102100009DF815009DF8161040EA012001B23F48E5
:1021100001829DF817009DF8181040EA012001B2D5
:102120003A484182B0F90E003949B1F900104843EC
:102130003549098BC1EB202000B23449C8810846DB
:10214000B0F910003249B1F9021048432E49498BC9
:10215000C1EB202001B22D480182B0F912002C49B8
:10216000B1F9041048432849898BC1EB202001B202
:10217000264841822448B0F912002449B1F90E10D2
:10218000884203DD2148C0891F4948821E48B0F9B2
:1021900014101E48B0F91000814203DD1B48018A6B
:1021A000194881821848B0F916101848B0F9120081
:1021B000814203DD1548418A1348C1821248B0F9B3
:1021C0000C001249B1F90E10884203DA0F48C08999
:1021D0000D4988810C48B0F90E100C48B0F9100078
:1021E000814203DA0948018A0748C1810648B0F9EB
:1021F00010100648B0F91200814203DA0348418A00
:102200000148018200BF6AE7280100201401002074
:102210006E00002000BFFEE702460B7D31F913304F
:102220008869C01A8861087D21F810200B7D31F97A
:102230001330886918448861087D401CC0B2087555
:102240000A2803DB0020087501204875487D28B165
:102250000A23886990FBF3F000B27047087D401EA6
:1022600031F91000F9E7704770B5002100230F2203
:10227000C47804B3154C246804F4E064C4F5E06445
:10228000210AC1F10403CA40447804FA03F18478B6
:102290001440214309010E4C0678A155047804F03E
:1022A0001F050124AC4005786D11AD0005F1E02556
:1022B000C5F8004109E0047804F01F050124AC4092
:1022C000044D0678761145F8264070BD0CED00E00F
:1022D00000E400E080E100E002490143024A1160AD
:1022E000704700000000FA050CED00E070470000A8
:1022F00000487047F800002029B1064AD26902431D
:10230000044BDA6104E0034AD2698243014BDA618B
:10231000704700000010024029B1064A926902434A
:10232000044B9A6104E0034A92698243014B9A612B
:10233000704700000010024008B5012141F204007E
:10234000FFF7EAFFE020ADF8000018208DF8030049
:1023500003208DF8020069461A48FEF7FCFA1020A7
:10236000ADF800008DF8030003208DF802006946E7
:102370001448FEF7F0FA10211248FEF7BFFBE021E7
:102380001048FEF7BBFB00200F4908804FF4827015
:102390004880002088800220C880012008814002F7
:1023A0004881202088810020C881072008820748B2
:1023B00000F0A4F80121054800F086F8FF2000F0A5
:1023C0001FF808BD000801405C02002000300140F9
:1023D00070B506460C4600200749086044F08000AE
:1023E00000F00EF8FF2000F00BF80546012003492D
:1023F000C1F89001284670BD9001214200002142A1
:1024000070B50546002405E0601CC4B2C82C01DD8F
:10241000002070BD02210E4800F062F80028F3D0C1
:1024200029460B4800F068F8002405E0601CC4B29F
:10243000C82C01DD0020ECE70121054800F050F830
:102440000028F3D0024800F054F8C0B2E1E70000E1
:10245000003001402DE9F04180460D4616461F46EA
:10246000002400200A49086045F08000FFF7C8FFFB
:1024700000BF05E0FF20FFF7C3FF3855601CC4B262
:10248000B442F7DB012002490860BDE8F08100009A
:10249000900121422DE9F04107460C4615460020E7
:1024A000074908602046FFF7ABFF06462846FFF7BE
:1024B000A7FF01200349C1F89001BDE8F0810000A9
:1024C000900121420000214221B1028842F04002E5
:1024D000028004E002884FF6BF731A400280704702
:1024E0000246002013890B400BB1012000E00020C0
:1024F00070470146888970478181704710B5002276
:10250000028802F441520B884C8823438C88234371
:10251000CC8823430C8923434C8923438C89234350
:10252000CC8923431A430280838B4FF2FF742340EC
:1025300083830B8A038210BD70471FB504460121B7
:102540000846FFF7D9FE0020ADF80A004720ADF895
:102550000400ADF808400020ADF806008DF80C002E
:1025600001A94FF0804000F015F91C208DF8000003
:1025700000208DF8010001208DF802008DF8030085
:102580006846FFF771FE0121880700F0DAF80122A2
:102590001146900700F0F5F80121880700F0D4F803
:1025A0001FBD10B500F002F810BD00000CB50020F2
:1025B000019000903348006840F480303149086051
:1025C00000BF3048006800F4003000900198401CC3
:1025D0000190009818B90198B0F5A06FF1D1294881
:1025E000006800F4003010B10120009001E00020EC
:1025F00000900098012843D12348006840F0100063
:10260000214908600846006820F003000860084679
:10261000006840F0020008601A48406819494860A4
:102620000846406848600846406840F4806048605A
:102630000846406820F47C1048600846406840F432
:10264000E81048600846006840F08070086000BFED
:102650000C48006800F000700028F9D00948406874
:1026600020F00300074948600846406840F0020037
:10267000486000BF0348406800F00C000828F9D10A
:102680000CBD00000010024000200240042808D1C8
:102690004FF0E021096941F004014FF0E02211619F
:1026A00007E04FF0E021096921F004014FF0E0223A
:1026B000116170477047000010B51348006840F082
:1026C00001001149086008464068104908400E4959
:1026D0004860084600680E4908400B4908600846F3
:1026E000006820F4802008600846406820F4FE005E
:1026F00048604FF41F008860FFF753FF4FF0006001
:102700000449086010BD0000001002400000FFF8FE
:10271000FFFFF6FE08ED00E010B50121880700F08C
:102720001FF840B104480078401C0349087001219B
:10273000880700F003F810BD50000020CA43028251
:102740007047CA430282704721B1028842F00102F9
:10275000028004E002884FF6FE731A400280704740
:1027600030B50246002000230024158A05EA010343
:10277000958905EA010413B10CB1012000E00020A5
:1027800030BD1AB183890B43838102E083898B4377
:1027900083817047002202881D4B98420ED01D4B4A
:1027A00098420BD0B0F1804F08D01B4B984205D017
:1027B0001A4B984202D01A4B984204D14FF68F73AD
:1027C0001A404B881A43174B984207D0164B984231
:1027D00004D04FF6FF431A40CB881A4302808B88FF
:1027E00083850B8803850A4B98420BD0094B98428E
:1027F00008D00E4B984205D00D4B984202D00D4B9D
:10280000984201D10B7A038601238382704700002E
:10281000002C01400034014000040040000800404A
:10282000000C004000100040001400400040014037
:10283000004401400048014000BFFEE7490050EA63
:10284000C12018BF04204A0D18BF40F0010040F21B
:10285000FF72B2EB515F08BF40F00200012808BFD1
:10286000052070472DE9F0414F1E00EBC7010446DB
:10287000D1E9000115461E4637F006020DD02A4662
:102880003346FDF7F2FD7F1E04EBC703D3E90023B7
:10289000FDF744FD37F00602F1D1022F25D0042FB9
:1028A00013D0062F18BFBDE8F0812A463346FDF746
:1028B000DCFDD4E90A23FDF731FD2A463346FDF756
:1028C000D4FDD4E90823FDF729FD2A463346FDF758
:1028D000CCFDD4E90623FDF721FD2A463346FDF75A
:1028E000C4FDD4E90423FDF719FD2A463346FDF75C
:1028F000BCFDD4E90223FDF711FD2A463346FDF75E
:10290000B4FDD4E90023BDE8F041FDF707BD012285
:10291000FDF783BFFDF702BD0022134610461146A6
:10292000FDF715BE024A00201107FDF776BF000033
:1029300001FDFFFF02E008C8121F08C1002AFAD1FA
:1029400070477047002001E001C1121F002AFBD12F
:102950007047000001490860704700007C000020BB
:102960002DE9F04D8D4F21F0004A86B005460C460A
:10297000BA452ADBAAEB070028430AD088488245DB
:1029800001DC1AD1CDB106B02846BDE8F04DFFF705
:10299000BEBF844A844B2846FDF767FD07460E46B6
:1029A000824A834B28462146FDF75FFD06B03A4632
:1029B0003346BDE8F04DFDF7B1BC0120FFF7CAFF7B
:1029C00006B0BDE8F04DFFF7A7BF7A48824542DA6E
:1029D000BAF1795F0BDA2846FFF730FF042808BF09
:1029E000FFF7A0FF284606B02146BDE8F08D2A4635
:1029F0000B461046FDF739FD834602466E480E46EB
:102A00000B4606217844FFF72DFF5A463346FDF763
:102A10002CFD804669488A465A463346042178444C
:102A2000FFF720FF5A463346FDF71FFD00223B46C5
:102A3000FDF774FC02460B4640465146FDF787FD04
:102A40002A462346FDF711FD06B02A462346BDE877
:102A5000F04DFDF763BC284624F0004100223D46BE
:102A60003B46FDF7FFFC4FF0FF32FDF7D6FE064672
:102A7000024653480F460B4606217844FFF7F2FE04
:102A800032463B46FDF7F1FCCDE900014D483246A8
:102A90003B4604217844FFF7E5FE32463B46FDF70E
:102AA000E4FC00222B46FDF739FC834602913046B8
:102AB000394600F03BFB804643480D46504517DC45
:102AC000DDE900015A46029BFDF741FD42462B46D7
:102AD000FDF7CBFC42462B46FDF720FC0122FDF71B
:102AE0009CFE304A304BFDF7BAFC304A304B4CE08C
:102AF0004FF0000A52460B464046FDF70FFCCDE969
:102B0000031052462B4610461946FDF7AEFC3246DE
:102B10003B46FDF7A7FCDDE90332FDF718FD06464D
:102B20000F46DDE900015A46029BFDF710FD834682
:102B30000091012230463946FDF76FFE194A1A4BC3
:102B4000FDF790FC06460F46012240462946FDF758
:102B500064FE5A46009BFDF788FC32463B46FDF773
:102B60007EFC06460F46012250462946FDF755FEDB
:102B70000E4DDFF858802A464346FDF773FC324677
:102B80003B46FDF76FFC2A464346FDF76BFC002CE5
:102B9000D8BF81F0004106B0BDE8F08D0000F03FE5
:102BA0000000F07F075C143326A6913C182D445496
:102BB000FB21F93F0000E03F70070000860700009E
:102BC000FA060000100700003333EF3FFB21E93F16
:102BD0002DE9F84F04460D4621F00040009173495D
:102BE000814211DC7249884201DC06D12CB12046B9
:102BF0002946BDE8F84FFFF78ABE6E48002DCCBFCE
:102C00006D496E49BDE8F88F6D49814211DD6D490E
:102C10008142D8BF4FF0FF366DDD20462946FFF7D1
:102C20000DFE042808BFFFF77DFE20462946BDE8BB
:102C3000F88F6549654F25F00045814233DD6449D1
:102C4000814219DD002632464FF080432046294656
:102C5000FDF764FB80468A46012220462946FDF79F
:102C6000DCFD00223B46FDF7FAFB42465346FDF7EA
:102C70006EFC04460D463EE001260022BA463B4665
:102C800020462946FDF74AFB80460F460022534660
:102C900020462946FDF7E3FB42463B46FDF757FC3D
:102CA00004460D4627E04B4981421BDDDFF828A191
:102CB00002260022534620462946FDF7D6FB002275
:102CC0003B46FDF72BFB80460F460022534620462D
:102CD0002946FDF7C4FB42463B46FDF738FC044657
:102CE0000D4608E0032622462B4600203B49FDF70F
:102CF0002EFC04460D4622462B4610461946FDF78B
:102D0000B4FB8B46824602460B46FDF7AEFB0746F8
:102D10000246334888460B4606217844FFF7A2FD59
:102D200052465B46FDF7A1FB82462E488B463A464B
:102D3000434605217844FFF795FD3A464346FDF7A3
:102D400094FB02460B46002E504659460CDAFDF71E
:102D5000E5FA22462B46FDF788FB01B022462B46BA
:102D6000BDE8F04FFDF77EBBFDF7D8FA22462B46B3
:102D7000FDF77BFB1C4A7A4402EBC603D3E9002330
:102D8000FDF76DFB22462B46FDF769FB174A7A4497
:102D900002EBC603D3E90023FDF764FB009A002A87
:102DA000B8BF81F00041BDE8F88F0000000010447A
:102DB0000000F07F182D4454FB21F93FFB21F9BF9F
:102DC0000000DC3F0000203E0000F33F0000F03F29
:102DD0000000E63F008003400000F83F0000F0BF25
:102DE00012050000D00400006E040000360400004C
:102DF0002DE9F04D9446CCF1000423F000464CEA56
:102E00000404524F46EAD4749A46884621F00042A0
:102E1000BC4206D8454240EA050442EAD474BC42AA
:102E200004D9BDE8F04D6246FFF774BDAAF14055E4
:102E3000A5F17F6555EA0C040BD0022404EAAA74BC
:102E4000434DDFF810E144EAD87452EA000B04D095
:102E50000CE0BDE8F04DFFF7BBBE002C14BF012C09
:102E6000BDE8F08D022C30D0032C32D056EA0C0B8A
:102E70000AD0BE4220D1BA4209D126F0804622F0C3
:102E800080423346114617E000291ADB25E0DFF8BF
:102E9000C8B0FB44002C04BFDBE90001BDE8F08DA5
:102EA000012C02BFDBE9000181F00041BDE8F08D9B
:102EB000022C0AD0032C0CD0BA4212D1B8F1000F68
:102EC0000BDA23482549BDE8F08D28462449BDE8A2
:102ED000F08D28467146BDE8F08D1D482149BDE8BA
:102EE000F08D921B12153C2AC4BF19481D490EDCF7
:102EF000BAF1000FBEBF12F13C0F0020014606DB05
:102F00006246FDF724FB21F00041FFF761FE002C33
:102F100008BFBDE8F08D012C04BF81F00041BDE881
:102F2000F08D114A114B022C07D0FDF798FA2A4672
:102F3000BDE8F04D0A4BFDF792BAFDF790FA2A462C
:102F4000BDE8F04D064BFDF78DBA00000000F07FA4
:102F5000182D4454FB2109C0CA030000FB21F9BF0E
:102F6000FB210940FB21F93F075C143326A6A13C55
:102F700010B56FF00400FFF789FB0A4800680A49A2
:102F8000B0FBF1F0094908700846007800EB4001F9
:102F9000C1EBC0104FF6FF7101EAC0000449088080
:102FA00010BD00005800002000127A0076000020BA
:102FB000780000200146114A12884A434FF0E0236E
:102FC0005A6100229A611A46126942F001021A619E
:102FD00000BF4FF0E022106900F001021AB100F4C6
:102FE0008032002AF5D04FF0E022126922F001026F
:102FF0004FF0E0231A6100229A61704778000020A8
:103000000146114A12784A434FF0E0235A610022E8
:103010009A611A46126942F001021A6100BF4FF02C
:10302000E022106900F001021AB100F48032002A97
:10303000F5D04FF0E022126922F001024FF0E023B8
:103040001A6100229A617047760000202DE9F0474E
:1030500004464FF07C512046FDF7F0F881462546A6
:103060002E460C48A0EB6606354629464846FDF735
:10307000E5F882462946FDF7E1F880464FF07F519A
:10308000FDF7D9F807462946FDF7D8F80546284642
:10309000BDE8F087DF59375F4FF4A060FFF71CF9F8
:1030A00001210846FFF738F901211A48FDF7DEFC37
:1030B000FFF75EFF4FF47A70FFF77CFFFEF7EEFD3F
:1030C000FFF73AF96420FFF775FFFEF753FF4FF45F
:1030D000FA60FFF732FAFEF7DBFD1AE00E480078DF
:1030E000B8B10E48FEF70CF90D48FEF7F7F90020CD
:1030F000094908700B480068401C0A49086042F200
:103100001071884205D9012007490870002005493F
:103110000860E3E7000230005000002008010020B2
:103120006F12033B540000206D0000202DE9F04198
:1031300006460F46FDF788FB041E0D4618BF01200A
:10314000284320F00040C0F17F6000F1E040C00F54
:103150000ED0301C18BF0120384320F00040C0F1D1
:103160007F6000F1E040C00F04BF0120FFF7F2FBD9
:1031700020462946BDE8F081555555555555C53F62
:103180007D6FEB0312D6D4BF5544880E55C1C93F9D
:103190003B8F68B52882A4BF88B20175E0EF493F34
:1031A00009F7FD0DE13D023F4B2D8A1C273A03C074
:1031B000C88A599CE52A004059018D1B6C06E6BF60
:1031C00082922EB1C5B8B33F4FBB610567ACDD3FFE
:1031D000182D4454FB21E93F9BF681D20B73EF3F3E
:1031E000182D4454FB21F93FE2652F227F2B7A3CB6
:1031F000075C143326A6813CBDCBF07A8807703C6F
:10320000075C143326A6913CC4EB98999999C9BFE1
:10321000711623FEC671BCBF6D9A74AFF2B0B3BF16
:103220009AFDDE522DDEADBF2F6C6A2C44B4A2BFD6
:103230000D5555555555D53FFF8300922449C23F42
:103240006E204CC5CD45B73F513DD0A0660DB13F76
:10325000EB0D76244B7BA93F11DA22E33AAD903F88
:10326000000000000000000088320008000000207C
:103270008000000034290008083300088000002086
:10328000F0050000442900080000000000000000D4
:10329000000000000000000000000000000000002E
:1032A000000000000000803F00000000000000005F
:1032B000000000000000000000000000000000000E
:1032C00000000000000000000000000000000000FE
:1032D00000000000000000000000000000000000EE
:1032E00000A24A04000000000000000001020304E4
:1032F00006070809000000000000000000000000B0
:083300000000000000000000C5
:0400000508000131BD
:00000001FF
