:020000040800F2
:10000000000B002045010008E1070008E906000890
:10001000DD070008C50100088F120008000000007D
:10002000000000000000000000000000ED090008D2
:10003000390500080000000075080008010B0008E1
:100040005F0100085F0100085F0100085F01000810
:100050005F0100085F0100085F0100085F01000800
:100060005F0100085F0100085F0100085F010008F0
:100070005F0100085F0100085F010008C901000876
:100080005F0100085F0100085F0100085F010008D0
:100090005F0100085F0100085F0100085F010008C0
:1000A0005F0100085F0100085F0100085F010008B0
:1000B000650B00085F0100085F0100085F01000890
:1000C0005F0100085F0100085F0100085F01000890
:1000D0005F0100088D0F00085F0100085F01000844
:1000E0005F0100085F0100085F0100085F01000870
:1000F0005F0100085F0100085F0100085F01000860
:100100005F0100085F010008C90B00085F010008DB
:100110005F0100085F010008E50B00085F010008AF
:100120005F0100085F0100085F0100085F0100082F
:10013000DFF80CD000F018F80048004791130008D1
:10014000000B00200648804706480047FEE7FEE710
:10015000FEE7FEE7FEE7FEE7FEE7FEE7FEE7FEE777
:10016000050B000831010008064C074D06E0E06869
:1001700040F0010394E8070098471034AC42F6D3EE
:10018000FFF7DAFFF81400081815000810B500F0A2
:1001900028FB01F0A7F84FF4E13001F0FDF800F082
:1001A000CBFA032000F0A2FA00F0F6F802A001F06A
:1001B00071F800F0BBFA10BD737973206F6B0D0AF4
:1001C0000000000000BFFEE710B500244FF400302F
:1001D00000F0A4F801286BD136480078412850D1AE
:1001E0003448C07D45284CD13348008840F4004055
:1001F000314908800846008840F48060088000F09B
:100200008FFA2C484078422806D12B48008840F4C9
:1002100080402949088023E026484078432806D1B9
:100220002548008840F400502349088018E0214800
:100230004078442806D12048008840F480501E4968
:1002400008800DE01B484078452806D11A480088F0
:1002500040F400601849088002E000201649088038
:1002600000240BE01349A01C085C144908551248EF
:100270000088401C10490880601CC4B2152CF1DBBA
:100280000EE00C480078AA2804D10A48407CEE28E9
:1002900000D105E000200849088009A000F0FAFF1D
:1002A0004FF4003000F012F84FF4003000F01CF86A
:1002B00010BD0000E10000209C000020A0000020F4
:1002C000646D61206572726F720D0A0000F08051DA
:1002D00011B10349086001E002494860704700001D
:1002E000040402400000024000F0805111B10349B3
:1002F000086001E0024948607047000004040240C1
:100300000000024021B1026842F00102026004E0F4
:1003100002684FF6FE731A400260704701460020E3
:10032000002201F0805313B1054B1A6801E0054B20
:100330001A6802EA01030BB1012000E000207047B7
:1003400000040240000002401AB103680B4303603E
:1003500002E003688B430360704710B50022026817
:1003600047F6F0739A430C6A8B6823430C69234366
:100370004C6923438C692343CC6923434C6A234350
:100380008C6A23431A430260CB6843600B68836026
:100390004B68C36010BD000000B589B00121082082
:1003A00000F09AFA0121022000F076FA1020ADF850
:1003B000200003208DF8220010208DF8230008A9CA
:1003C0005A4800F0BAF82020ADF8200003208DF83C
:1003D000220010208DF8230008A9544800F0ADF841
:1003E0000121534800F034F90120ADF8200003202A
:1003F0008DF8220010208DF8230008A94B4800F04A
:100400009CF80220ADF8200003208DF82200102077
:100410008DF8230008A9454800F08FF833214348A0
:1004200000F05EF91020ADF8200003208DF82200C6
:1004300018208DF8230008A93C4800F07EF8202001
:10044000ADF8200003208DF8220018208DF823003D
:1004500008A9364800F071F80120ADF8200003200B
:100460008DF8220018208DF8230008A92F4800F0ED
:1004700064F80220ADF8200003208DF82200182037
:100480008DF8230008A9294800F057F80020ADF89E
:100490001A004720ADF814000020ADF8160044F60D
:1004A0002060ADF8180005A9224800F01DFD70205D
:1004B000ADF804000120ADF806000020ADF80A00F8
:1004C0000220ADF80C000020ADF80E00ADF81000D1
:1004D000ADF8120001A9174800F0DAFB0120ADF8D1
:1004E00006000020ADF80A0001A9124800F01CFC2B
:1004F0000120ADF806000020ADF80A0001A90D4862
:1005000000F064FC0120ADF806000020ADF80A0000
:1005100001A9084800F0AAFC0121064800F08CFB64
:100520000121044800F097FB09B000BD000C014018
:1005300000081A000004004070472DE9F04102460F
:1005400000250026002000230024002791F803C086
:100550000CF00F0591F803C00CF0100CBCF1000F6B
:1005600003D091F802C04CEA050591F800C0BCF137
:10057000000F31D0146800202BE04FF0010C0CFA72
:1005800000F3B1F800C00CEA03069E4220D18300BC
:100590004FF00F0C0CFA03F7BC4305FA03FC4CEACE
:1005A000040491F803C0BCF1280F06D14FF0010CF0
:1005B0000CFA00FCC2F814C00AE091F803C0BCF1C8
:1005C000480F05D14FF0010C0CFA00FCC2F810C026
:1005D000401C0828D1D31460B1F800C0BCF1FF0F53
:1005E00034DD546800202EE000F1080C4FF00108C3
:1005F00008FA0CF3B1F800C00CEA03069E4221D1C0
:1006000083004FF00F0C0CFA03F7BC4305FA03FC10
:100610004CEA040491F803C0BCF1280F05D100F1A5
:10062000080C08FA0CF8C2F8148091F803C0BCF169
:10063000480F07D100F1080C4FF0010808FA0CF838
:10064000C2F81080401C0828CED35460BDE8F08169
:10065000F0B50A46002300240021002500F00046E2
:10066000B6F1004F02D11D4EF16901E01B4E7168D9
:10067000C0F3034583B200F44016B6F5401F08D11D
:1006800021F07061154E766826F07066134F7E601B
:1006900012E000F48016B6F5801F06D1032606FA94
:1006A00005F4A14341F0706106E0460D360103FAFE
:1006B00006F6B14341F0706122B1460D360103FAEE
:1006C00006F6314300F00046B6F1004F02D1034E6A
:1006D000F16101E0014E7160F0BD000000000140D9
:1006E000416170470161704700BFFEE770B5044685
:1006F00025460EE0002008490860642000F014FE42
:1007000001200649C1F8A001642000F00DFE681E1A
:10071000C5B2002DEEDC70BDA001214200002142D7
:100720000120014908607047A001214200200149D1
:1007300008607047A001214208B501212C2000F07B
:10074000CBF80121084600F0C7F801211F48FFF748
:100750007FFF4FF40870ADF8000010208DF8030003
:1007600003208DF8020069461948FFF7E6FE4FF4B2
:1007700008711748FFF7B4FF4FF40140ADF80000CF
:1007800010208DF8030003208DF8020069461148FF
:10079000FFF7D3FE4FF400410E48FFF7A1FF4FF4DF
:1007A00080710C48FFF79EFF0420ADF80000102078
:1007B0008DF8030003208DF8020069460648FFF714
:1007C000BCFE04210448FFF78BFF08BD0002300087
:1007D000000C0140000801400014014000BFFEE78A
:1007E000704710B54FF4A06000F03AF810BD00005B
:1007F00070B5002100230F22C47804B3154C24687F
:1008000004F4E064C4F5E064210AC1F10403CA40C1
:10081000447804FA03F184781440214309010E4C12
:100820000678A155047804F01F050124AC40057832
:100830006D11AD0005F1E025C5F8004109E004782F
:1008400004F01F050124AC40044D0678761145F8EC
:10085000264070BD0CED00E000E400E080E100E027
:1008600002490143024A1160704700000000FA0586
:100870000CED00E07047000029B1064A52690243BE
:10088000044B5A6104E0034A52698243014B5A61A6
:10089000704700000010024029B1064AD2690243A5
:1008A000044BDA6104E0034AD2698243014BDA6106
:1008B000704700000010024029B1064A1269024345
:1008C000044B1A6104E0034A12698243014B1A6126
:1008D000704700000010024029B1064A92690243A5
:1008E000044B9A6104E0034A92698243014B9A6186
:1008F000704700000010024029B1064AD268024346
:10090000044BDA6004E0034AD2688243014BDA60A8
:10091000704700000010024030B500210022002482
:1009200000232D4D6D6805F00C0121B1042905D07F
:10093000082923D105E0294D056022E0274D0560F7
:100940001FE0254D6D6805F47012234D6D6805F4A8
:100950008034022505EB92421CB9214D55430560B8
:100960000BE01D4D6D6805F400351DB11C4D554360
:10097000056002E0194D5543056002E0174D056022
:1009800000BF00BF144D6D6805F0F0010909154D59
:100990006B5C0568DD4045600F4D6D6805F4E061F6
:1009A000090A104D6B5C4568DD4085600A4D6D6835
:1009B00005F46051C90A0B4D6B5C4568DD40C560AC
:1009C000054D6D6805F44041890B074D6B5CC568AA
:1009D000B5FBF3F5056130BD0010024000127A004E
:1009E00000093D008000002090000020704710B5F5
:1009F00000F002F810BD00000CB50020019000903E
:100A00003348006840F480303149086000BF304806
:100A1000006800F4003000900198401C019000989C
:100A200018B90198B0F5A06FF1D12948006800F419
:100A3000003010B10120009001E0002000900098EB
:100A4000012843D12348006840F010002149086084
:100A50000846006820F0030008600846006840F07F
:100A6000020008601A484068194948600846406812
:100A700048600846406840F4806048600846406826
:100A800020F47C1048600846406840F4E810486054
:100A90000846006840F08070086000BF0C4800689D
:100AA00000F000700028F9D00948406820F00300E9
:100AB000074948600846406840F00200486000BFAF
:100AC0000348406800F00C000828F9D10CBD000074
:100AD0000010024000200240042808D14FF0E0211D
:100AE000096941F004014FF0E022116107E04FF085
:100AF000E021096921F004014FF0E0221161704703
:100B00007047000010B51348006840F0010011491B
:100B1000086008464068104908400E494860084689
:100B200000680E4908400B4908600846006820F438
:100B3000802008600846406820F4FE0048604FF4BA
:100B40001F008860FFF753FF4FF000600449086002
:100B500010BD0000001002400000FFF8FFFFF6FE8D
:100B600008ED00E010B50121880700F080F830B3EF
:100B700013480068401C1249086012488088401CD5
:100B80001049888008464088401C48800C4800680E
:100B90001421B0FBF1F201FB120060B909480078A2
:100BA00020F00100401C074908700846007820F03A
:100BB0000200801C08700121880700F049F810BD70
:100BC000540000200000002010B50121044800F06E
:100BD0004EF818B10121024800F03AF810BD0000AB
:100BE000000C004010B50121104800F040F8D8B1C9
:100BF00001210E4800F02CF800200D4908700FE08C
:100C00000C480B49097850F82100401E0949084A50
:100C1000127841F8220006480078401C0449087008
:100C2000034800780B28EBDB10BD000000100040EB
:100C3000500000202400002021B1028842F08002F0
:100C4000028004E002884FF67F731A4002807047EA
:100C5000CA430282704721B1028842F00102028039
:100C600004E002884FF6FE731A400280704730B5E8
:100C70000246002000230024158A05EA0103958915
:100C800005EA010413B10CB1012000E0002030BDE1
:100C900070B5002400220023058C4FF6FE76354007
:100CA0000584028C8388048B4FF68F752C40B51E0B
:100CB0002C400D882C43751E2A400D892A434D88EF
:100CC0002A43144DA8420BD0134DA84208D0134D0F
:100CD000A84205D0124DA84202D0124DA84213D10D
:100CE0004FF6F7752A404D892A434FF6FB752A4087
:100CF0008D882A434FF6FF652B404FF6FF552B405A
:100D00008D892B43CD892B4383800483CD888586B1
:100D1000028470BD002C01400034014000400140BD
:100D2000004401400048014070B500240022002327
:100D3000058C4FF6EF7635400584028C8388048B52
:100D400048F6FF752C404FF6FF452C400D884FF6B6
:100D5000FF7606EA05252C434FF6DF752A400D89FC
:100D600006EA05152A434D8806EA05152A43154D5E
:100D7000A84202D0144DA8421DD14FF67F752A40DB
:100D80004D894FF6FF7606EA05152A434FF6BF75E3
:100D90002A408D8806EA05152A434FF6FF352B4079
:100DA0004FF2FF752B408D8906EA85052B43CD89CF
:100DB00006EA85052B4383800483CD88058702845A
:100DC00070BD0000002C01400034014070B50024CB
:100DD00000220023058C4FF6FF6635400584028C07
:100DE0008388848B4FF68F752C404FF6FC752C4012
:100DF0000D882C434FF6FF552A400D894FF6FF769C
:100E000006EA05252A434D8806EA05252A43154D9D
:100E1000A84202D0144DA8421DD14FF2FF752A40BE
:100E20004D894FF6FF7606EA05252A434FF6FF3532
:100E30002A408D8806EA05252A434EF6FF752B4089
:100E40004DF6FF752B408D8906EA05152B43CD899C
:100E500006EA05152B4383808483CD888587028429
:100E600070BD0000002C01400034014070B500222C
:100E700000230024058C4EF6FF7635400584038C54
:100E80008488828B48F6FF752A404FF6FF452A403A
:100E90000D884FF6FF7606EA05252A434DF6FF75C5
:100EA0002B400D8906EA05352B434D8806EA0535AA
:100EB0002B430B4DA84202D00A4DA84208D14BF655
:100EC000FF752C408D894FF6FF7606EA85152C4379
:100ED00084808283CD88A0F84050038470BD0000D8
:100EE000002C014000340140002202881D4B984232
:100EF0000ED01D4B98420BD0B0F1804F08D01B4B49
:100F0000984205D01A4B984202D01A4B984204D10D
:100F10004FF68F731A404B881A43174B984207D0ED
:100F2000164B984204D04FF6FF431A40CB881A4321
:100F300002808B8883850B8803850A4B98420BD0EF
:100F4000094B984208D00E4B984205D00D4B984261
:100F500002D00D4B984201D10B7A03860123838284
:100F600070470000002C01400034014000040040A4
:100F700000080040000C0040001000400014004039
:100F800000400140004401400048014010B50024E9
:100F900040F22551384800F0DFF800286BD0364881
:100FA00000F070F9C4B235480078401C334908702D
:100FB00008460078012804D0022812D018284AD107
:100FC00037E0412C09D12E48008840F400402C49DC
:100FD000088000202B49086002E000202849088092
:100FE00048E0422C06D12648008840F4804024493D
:100FF00008801DE0432C06D12148008840F40050B1
:101000001F49088014E0442C06D11D48008840F494
:1010100080501B4908800BE0452C06D118480088F9
:1010200040F400601649088002E00020144908805E
:1010300020E0452C03D00020114908800AE0104828
:10104000008840F480600E49088000200B49087039
:101050000D4908700EE00D480B49097844540A48C0
:101060000078401C0849087005480088401C044965
:10107000088000BF00BF10BD003801409E00002066
:101080009C000020A00121429F000020A000002021
:1010900021B1828942F40052828104E082894DF6B6
:1010A000FF731A40828170471AB1838A0B4383828F
:1010B00002E0838A8B4383827047000010B50446A8
:1010C0002048844209D101218803FFF715FC002143
:1010D0004FF48040FFF710FC32E01B48844209D1F6
:1010E00001214804FFF7E8FB00214FF40030FFF72F
:1010F000E3FB25E01548844209D101218804FFF76C
:10110000DBFB00214FF48020FFF7D6FB18E01048EE
:10111000844209D10121C804FFF7CEFB00214FF41E
:101120000020FFF7C9FB0BE00A48844208D10121E7
:101130000805FFF7C1FB00214FF48010FFF7BCFB4F
:1011400010BD00000038014000440040004800404D
:10115000004C00400050004070B5024600240023BF
:101160000025002040F66A16B14200D100BFC1F34D
:10117000421501F01F03012606FA03F3012D02D1E7
:101180009689334006E0022D02D1168A334001E0F1
:10119000968A33400C12012606FA04F4168834406D
:1011A00013B10CB1012000E0002070BD2DE9F04723
:1011B00086B005460E460024A24600BFA146002781
:1011C000B08900B100BF2F462C8A4CF6FF70044056
:1011D000F08804432C82AC894EF6F3100440B088AA
:1011E00031890843718908430443AC81AC8A4FF6C6
:1011F000FF400440B0890443AC8201A8FFF78CFB98
:101200001F48874202D1DDF810A001E0DDF80CA0F4
:10121000A88900F4004040B10AEBCA0000EB0A10B4
:1012200031684900B0FBF1F807E00AEBCA0000EBB7
:101230000A1031688900B0FBF1F86420B8FBF0F0C7
:1012400004012009642101FB1089A88900F40040F1
:1012500040B1322000EBC900B0FBF1F000F0070014
:10126000044308E0322000EB09106421B0FBF1F0E8
:1012700000F00F0004432C8106B0BDE8F0870000A9
:101280000038014001468888C0F30800704700BF5D
:10129000FEE70000014A024900F013B87513000888
:1012A0009800002002E008C8121F08C1002AFAD1E5
:1012B00070477047002001E001C1121F002AFBD1D6
:1012C00070472DE9F04116460F460446002503E01D
:1012D0003946B047641C6D1C20780028F8D1284698
:1012E000BDE8F08110B56FF00400FFF7F5FB0A4888
:1012F00000680A49B0FBF1F0094908700846007817
:1013000000EB4001C1EBC0104FF6FF7101EAC000D5
:101310000449088010BD00001000002000127A006F
:1013200094000020960000200146114A12884A438A
:101330004FF0E0235A6100229A611A46126942F086
:1013400001021A6100BF4FF0E022106900F00102B3
:101350001AB100F48032002AF5D04FF0E022126971
:1013600022F001024FF0E0231A6100229A617047D7
:101370009600002000BF054A128802F04002002AB1
:10138000F9D0C2B2014B1B1D1A80704700380140D2
:10139000FEF7FCFE00BFFEE710B592B00446012147
:1013A00044F20400FFF798FA01210846FFF764FAB7
:1013B0004C48FFF783FE4FF40070ADF84400032063
:1013C0008DF8460018208DF8470011A94648FFF710
:1013D000B4F84FF48060ADF8440004208DF8470065
:1013E00011A94148FFF7A9F80D944FF48050ADF8CA
:1013F00038000020ADF83A004FF48060ADF83C00B2
:101400000020ADF840000C20ADF83E000DA9354895
:10141000FFF7CCFE01213348FFF73AFE3148001DAB
:101420000190324802900020039018200490002080
:1014300005908020069000200790089020200990B9
:101440004FF440500A9000200B9001A92848FEF765
:1014500084FF012240212348FFF726FE01220221BA
:101460002348FEF771FF01212148FEF74BFF0F20B3
:101470008DF8300001208DF8310000208DF8320009
:1014800001208DF833000CA8FFF7B2F901220221E8
:101490001748FEF759FF1348001D019015480290A8
:1014A00010200390292004900020059080200690B1
:1014B00000200790089009904FF440500A900020B7
:1014C0000B9001A90A481438FEF747FF012280213A
:1014D0000448FFF7E9FD002105481438FEF712FF24
:1014E00012B010BD0038014000080140E1000020AA
:1014F00058000240B8000020181500080000002025
:10150000A0000000A4120008B8150008A0000020E8
:10151000600A0000B4120008000000000000010191
:10152000010000000000000000A24A0400000000CA
:10153000000000000102030406070809D0070000AC
:10154000E8030000E8030000DC050000D00700000D
:10155000D0070000D0070000D0070000D00700002F
:10156000D0070000000000000000000000000000A4
:10157000000000000000000000000000000000006B
:10158000000000000000000000000000000000005B
:101590000000000000000000000000000102030441
:1015A00001020304060708090204060800000000FF
:0815B000000000000000000033
:0400000508000131BD
:00000001FF
