:020000040800F2
:10000000C00E002045010008952A00083914000898
:10001000112A0008150B00088334000800000000B6
:10002000000000000000000000000000492D000852
:10003000350F000800000000292B0008C52E00081D
:100040005F0100085F0100085F0100085F01000810
:100050005F0100085F0100085F0100085F01000800
:100060005F0100085F0100085F0100085F010008F0
:100070005F0100085F0100085F010008190B00081C
:100080005F0100085F0100085F0100085F010008D0
:100090005F0100085F0100085F0100085F010008C0
:1000A0005F0100085F0100085F0100085F010008B0
:1000B000352F00085F0100085F0100085F0100089C
:1000C0005F0100085F0100085F0100085F01000890
:1000D0005F010008813100085F0100085F0100082E
:1000E0005F0100085F0100085F0100085F01000870
:1000F0005F0100085F0100085F0100085F01000860
:100100005F0100085F010008C12F00085F010008BF
:100110005F0100085F010008DD2F00085F01000893
:100120005F0100085F0100085F0100085F0100082F
:10013000DFF80CD000F010FB00480047A1360008A3
:10014000C00E00200648804706480047FEE7FEE74D
:10015000FEE7FEE7FEE7FEE7FEE7FEE7FEE7FEE777
:10016000D52E000831010008D2B201E000F8012BC1
:10017000491EFBD270470022F6E710B513460A4627
:1001800004461946FFF7F0FF204610BDF0B480EAA0
:100190000102D40F4200B2EB410F02D202460846E0
:1001A00011464A0042D0C30DDDB2C1F3C752AD1AA9
:1001B000202D35DAC1F3160141F4000204B1524298
:1001C000C5F1200602FA06F12A411044B3EBD05FD4
:1001D00023D0C4B1012DA0EBC35009DCF0BC4FF01B
:1001E000004202EAC352DBB200F5000000F028BA78
:1001F000400000F1807000EBC350A0F1807040EA35
:10020000D170490009E0490841EAC071A0EBC35030
:1002100000F50000400800EBC350F0BC00F007BA46
:100220006142012202EB4101001BF6E7F0BC70477E
:1002300081F00041AAE780F00040A7E780EA0102D0
:1002400010B502F00043400022D04A001FD0010E3A
:1002500001EB1261C0F35600C2F3560240F40000F5
:1002600042F40002A0FB022000047F39140400D0F5
:10027000401C50EA124001D44000491EC2B20C0694
:1002800004EBD010401C4008802A02D003E000207C
:1002900010BD20F00100002900DA0020184310BD35
:1002A00030B480EA010202F0004530F0004221F053
:1002B000004013D090B1C30DD40DC2F31601C0F3AA
:1002C0001600E41A41F4000140F400027D3491422A
:1002D00001D3641C00E04900002C02DA30BC00208D
:1002E00070474FF400000023914201D3891A034361
:1002F00040084FEA4101F7D151B1914202D14FF08C
:10030000004105E002D24FF0010101E06FF0010170
:1003100003EBC450284430BC00F089B92DE9FE4FEE
:10032000804681EA0300C00F0C46009021F0004196
:1003300023F00045B8EB0200A94105D24046214612
:1003400090461C460B46024623F00040104347D01F
:10035000270DC7F30A00C3F30A510290401A019017
:1003600040286BDAC3F3130040F4801B00989246D8
:1003700020B10023D2EB030A63EB0B0B0198594623
:10038000C0F14002504600F031F906460D46504695
:100390005946019A00F039F910EB08006141002438
:1003A00087EA115284EAE7731A4340D0009A62B395
:1003B000019A012A4FEA075215DC001B61EB02018A
:1003C0004FF0004202EA0752CDE90042001C41F51D
:1003D000801132462B4600F070F903B0BDE8F08F73
:1003E00040462146F9E7001B61EB0201001C41F584
:1003F000801300185B412018A2F5001747EB03019A
:1004000040EAD570B6196D4111E06D084FEA360625
:1004100045EAC0754FEA0752001B61EB0201001C60
:1004200041F5801149084FEA300000195141324628
:100430002B4603B0BDE8F04F00F030B90098012220
:1004400040000023D0EB020263EBE07300982146EA
:100450004FEAE074B8EB000061EB0401E9E783F0D8
:1004600000435BE781F0004158E72DE9F04D81EA58
:10047000030404F0004B21F0004514464FF0000A3D
:1004800023F0004150EA050220D054EA01021DD0B9
:10049000C5F30A570246C5F31303C1F31300C1F3B2
:1004A0000A5640F4801543F48013A7EB0608101B8E
:1004B000D64608F2FD3873EB050002D308F10108B7
:1004C00001E092185B41B8F1000F03DA0020014609
:1004D000BDE8F08D00204FF48011064684460EE002
:1004E000171B73EB050705D3121B63EB05030643CC
:1004F0004CEA010C49084FEA300092185B4150EA7F
:100500000107EDD152EA030012D082EA040083EA27
:100510000501084305D0101BAB4106D20122002380
:1005200006E000224FF0004302E06FF0010253109A
:100530001AEB06004CEB085110EB0A0041EB0B01E3
:10054000BDE8F04D00F0AAB8C10F80EAE0700844A1
:10055000CA079623002100F073B8962300221146A3
:1005600000F06EB800F0004230F000400AD0C10D3B
:1005700001F56071C0F3160042EA0151C20840075C
:100580001143704700200146704701F0004330B42A
:1005900021F0004150EA010206D00A0DA2F5607276
:1005A000C1F31301002A02DC30BC00207047440F65
:1005B00044EAC104C100E01830BC00EBC25000F0B6
:1005C00036B80000002801DBC0F10040002901DB43
:1005D000C1F1004181427047002801DBC0F10040B9
:1005E000002901DBC1F1004188427047202A04DB69
:1005F000203A00FA02F1002070479140C2F1200336
:1006000020FA03F3194390407047202A06DBCB17EA
:10061000203A41FA02F043EAE07306E041FA02F3BD
:10062000D040C2F12002914008431946704700298A
:10063000A8BF7047401C490008BF20F00100704768
:1006400010B4B0FA80FC00FA0CF050EA010404BFC8
:1006500010BC704749B1CCF1200421FA04F411FA1E
:100660000CF118BF012121430843A3EB0C01CB1D62
:100670004FEA00614FEA102042BF002010BC7047D3
:1006800000EBC35010440029A4BF10BC7047401CAD
:10069000490008BF20F0010010BC704710B5141EBF
:1006A00073F1000408DA401C41F1000192185B412B
:1006B0001A4301D120F0010010BD2DE9F04D924602
:1006C0009B4611B1B1FA81F202E0B0FA80F2203219
:1006D0009046FFF78BFF04460F4640EA0A0041EAC6
:1006E0000B0153465A46084313D0114653EA010002
:1006F00019D0C8F14002504600F040F805460E46B9
:10070000504659464246FFF771FF084305D0012085
:1007100004E020463946BDE8F08D0020054346EA56
:10072000E0762C4337430A986305E40AA0EB0800FF
:100730000022FD0A44EA47540A3002D5002001464F
:10074000E9E7010510196941DDE90845001969412A
:10075000BDE8F04DA2E70000064C074D06E0E0685A
:1007600040F0010394E8070098471034AC42F6D3F8
:10077000FFF7E2FCA8400008C8400008202A04DB7C
:10078000203A21FA02F00021704721FA02F3D0400A
:10079000C2F1200291400843194670473EB5044615
:1007A0000748806806494968054DCDE90104009174
:1007B0002B68044DAA686968286801F06BFD3EBD8E
:1007C000C8020020D40200202DE9FC5F06460F4637
:1007D00090469946DDF830B00024A246002500205E
:1007E00001900090AA222146641C9F484254214651
:1007F000641C4254F1222146641C425400222146CA
:10080000641C4254306801909DF807202146641C06
:10081000954842549DF806202146641C42549DF898
:1008200005202146641C42549DF804202046611C8A
:10083000CCB28D490A54386801909DF807202046B3
:10084000611CCCB288490A549DF806202046611CE0
:10085000CCB285490A549DF805202046611CCCB2D3
:1008600081490A549DF804202046611CCCB27E497F
:100870000A54D8F8000001909DF807202046611C1A
:10088000CCB279490A549DF806202046611CCCB2AE
:1008900075490A549DF805202046611CCCB2724966
:1008A0000A549DF804202046611CCCB26E490A54BB
:1008B000D9F8000001909DF807202046611CCCB2B9
:1008C00069490A549DF806202046611CCCB266494D
:1008D0000A549DF805202046611CCCB262490A5496
:1008E0009DF804202046611CCCB25F490A54DBF815
:1008F000000001909DF807202046611CCCB25A49A7
:100900000A549DF806202046611CCCB256490A5470
:100910009DF805202046611CCCB253490A549DF82D
:1009200004202046611CCCB24F490A540D9800683F
:1009300001909DF807202046611CCCB24A490A5418
:100940009DF806202046611CCCB247490A549DF808
:1009500005202046611CCCB243490A549DF804206E
:100960002046611CCCB240490A540E9800680190A0
:100970009DF807202046611CCCB23B490A549DF8E3
:1009800006202046611CCCB237490A549DF8052048
:100990002046611CCCB234490A549DF804202046FC
:1009A000611CCCB230490A540F98006801909DF840
:1009B00007202046611CCCB22B490A549DF8062022
:1009C0002046611CCCB228490A549DF805202146D6
:1009D000601CC4B2244842549DF804202046611C87
:1009E000CCB221490A54109800909DF8012020466D
:1009F000611CCCB21C490A549DF800202046611CA1
:100A0000CCB219490A54119800909DF80120204653
:100A1000611CCCB214490A549DF800202046611C88
:100A2000CCB211490A54201FC87000BF06E00E481E
:100A3000405D504400F0FF0A681CC5B2A542F6DBD9
:100A40002046611CCCB2084901F800A000210748EB
:100A500000F000F92921054800F045F9012103487B
:100A600000F0F8F8BDE8FC9F780400204400024044
:100A7000014600200A78303A0A2A1AD2DFE802F04A
:100A80000507090B0D0F11131517002012E00120A7
:100A900010E002200EE003200CE004200AE0052014
:100AA00008E0062006E0072004E0082002E0092014
:100AB00000E000BF00BF704710B501F0ECFF02F08E
:100AC0004DFD4FF4E13002F035FE01F0D3F9032083
:100AD00001F0AAF901F0D2FA40F6B83002F060FD58
:100AE00040F6B83002F05CFD064801F04FFA40F2E3
:100AF000E73002F02AF904A002F008FD01F0B4F991
:100B000010BD0000E0020020737973206F6B0D0AA6
:100B10000000000000BFFEE710B500244FF40030D5
:100B200000F0A4F801286BD136480078412850D154
:100B30003448C07D45284CD13348008840F40040FB
:100B4000314908800846008840F48060088001F040
:100B500085F92C484078422806D12B48008840F47B
:100B600080402949088023E026484078432806D160
:100B70002548008840F400502349088018E02148A7
:100B80004078442806D12048008840F480501E490F
:100B900008800DE01B484078452806D11A48008897
:100BA00040F400601849088002E0002016490880DF
:100BB00000240BE01349A01C085C14490855124896
:100BC0000088401C10490880601CC4B2152CF1DB61
:100BD0000EE00C480078AA2804D10A48407CEE2890
:100BE00000D105E000200849088009A002F08EFC31
:100BF0004FF4003000F012F84FF4003000F01CF811
:100C000010BD0000A10400200C01002060040020A1
:100C1000646D61206572726F720D0A0000F0805180
:100C200011B10349086001E00249486070470000C3
:100C3000040402400000024000F0805111B1034959
:100C4000086001E002494860704700000404024067
:100C50000000024021B1026842F00102026004E09B
:100C600002684FF6FE731A4002607047014600208A
:100C7000002201F0805313B1054B1A6801E0054BC7
:100C80001A6802EA01030BB1012000E0002070475E
:100C900000040240000002401AB103680B430360E5
:100CA00002E003688B430360704710B500220268BE
:100CB00047F6F0739A430C6A8B6823430C6923430D
:100CC0004C6923438C692343CC6923434C6A2343F7
:100CD0008C6A23431A430260CB6843600B688360CD
:100CE0004B68C36010BD4160704700002DE9F04FB4
:100CF0008FB006460C460025A84600200E900D90A9
:100D000000270C900B900A901C2103A8FFF733FAE0
:100D1000C4F3090800BF06E07019FFF7A9FE03A994
:100D20004855681C85B24545F6DB04F40060002890
:100D30007ED19DF81200FFF710FC83467B49FFF738
:100D4000AFFA81469DF81100FFF707FC7849019042
:100D5000FFF7A6FA83469DF80D10642251439DF8D3
:100D60000E2002EB820201EB42019DF80F20881851
:100D7000FFF7EAFB59460290FFF708FA8246494618
:100D8000FFF704FA0E909DF81900FFF7E6FB834683
:100D90006649FFF785FA81469DF81800FFF7DDFBED
:100DA00063490190FFF77CFA83469DF81410642292
:100DB00051439DF8152002EB820201EB42019DF8A0
:100DC00016208818FFF7C0FB59460290FFF7DEF99E
:100DD00082464946FFF7DAF90D909DF82000FFF7AB
:100DE000BCFB83465149FFF75BFA81469DF81F0023
:100DF000FFF7B3FB4E490190FFF752FA83469DF887
:100E00001B10642251439DF81C2002EB820201EB6F
:100E100042019DF81D208818FFF796FB5946029065
:100E2000FFF7B4F982464946FFF7B0F9074600E0FC
:100E300011E004F4804010B101F016F872E004F4FF
:100E4000005010B101F010F86CE004F48050E8B3E9
:100E500001F00AF866E09DF80D1042F2107251435D
:100E60009DF80E2002EB4203C3EBC21201EBC2015C
:100E70009DF80F2002EBC20303EB021201EB82018B
:100E80009DF8102002EB820201EB42019DF8112037
:100E90008818FFF759FB0C909DF8141042F210725D
:100EA00051439DF8152002EB4203C3EBC21201EB44
:100EB000C2019DF8162002EBC20303EB021201EB04
:100EC00082019DF8172002EB820200E02AE001EB8C
:100ED00042019DF818208818FFF736FB0B909DF80B
:100EE0001B1042F2107251439DF81C2002EB42038A
:100EF000C3EBC21201EBC2029DF81D1001EBC1034E
:100F000003EB011102EB81019DF81E2002EB82022E
:100F100001EB42019DF81F208818FFF715FB0A908E
:100F200000F0A2FF0FB0BDE8F08F00000000C84243
:100F300000002041704700002DE9FF5F80464FF020
:100F40007E5B454600212846FFF73CFB03D285F037
:100F500000458BF0004B4FF07C512846FFF73CFBDF
:100F600020D201274FF07E512846FFF735FB04D2EF
:100F70000024204604B0BDE8F09F29464FF07E5083
:100F8000FFF756F94FF07C510390FFF757F90646EB
:100F9000304600F049F94FF040410390FFF74EF919
:100FA000054614E000272E492846FFF70BFB09D21F
:100FB0002C4600215846FFF705FB01D284F000447F
:100FC0002046D7E729462846FFF738F90646314636
:100FD0002448FFF733F924490090FFF7D7F831464A
:100FE0000190FFF72BF921490290FFF7CFF8314626
:100FF0000390FFF723F981461D493046FFF7C6F8F5
:1010000031460090FFF71AF91A490190FFF7BEF830
:1010100031460290FFF712F917490390FFF7B6F82F
:10102000824651464846FFF73BF90446294620468A
:10103000FFF704F929460390FFF7A8F80446012FAB
:1010400004D10E492046FFF7A1F804460021584676
:10105000FFF7B8FA01D284F0004420468AE7000086
:10106000F304B5393F3118BFE0F93940201B30C0D7
:10107000855725C1F7EAC641581484C1DB0FC93F23
:101080002DE9FC5F83468A4600215046FFF79AFA15
:1010900019D100215846FFF795FA03D100242046C4
:1010A000BDE8FC9F554C00215846FFF795FA01D248
:1010B0002046F5E700215846FFF784FA03D284F072
:1010C00000442046ECE74FF00009D8465646002180
:1010D0004046FFF777FA01D288F0004800213046F9
:1010E000FFF770FA01D286F0004631464046FFF71E
:1010F00073FA04D235464646A8464FF002093146F7
:101100004046FFF7CDF805463D492846FFF764FA0B
:1011100019D23C492846FFF791F84FF07E510090D4
:10112000FFF786F829460190FFF730F880462946F8
:101130003548FFF72BF8064631464046FFF7B0F832
:10114000054609F101092F4600213846FFF73AFA12
:1011500001D287F000472D493846FFF733FA01D214
:101160002C462CE029462846FFF768F80746394602
:101170002748FFF763F827490090FFF707F839463B
:101180000190FFF75BF8804623493846FEF7FEFFE3
:1011900039460090FFF752F820490190FEF7F6FF1C
:1011A000064631464046FFF77BF80446294620466E
:1011B000FFF744F829460190FEF7E8FF0446B9F12D
:1011C000010F01DD84F00044154850F82910204635
:1011D000FEF7DCFF044600215046FFF7F3F904D286
:1011E00021461048FFF724F8044600215846FFF72F
:1011F000E9F901D284F00044204651E7DB0FC93FF2
:10120000A330893EAF673B3FD7B3DD3FF304B53929
:10121000AE5338BFA854B8BF3C1298407E3F8A40B6
:1012200098400008DB0F494070B50446204600F0A6
:1012300005F805462146FFF701F870BD2DE9F84392
:10124000044600940D490098A1EB500000900C4911
:101250002046FEF7F3FF80460099FEF7EFFF0746B2
:101260000099FEF7EBFF06460649FEF7E4FF054648
:101270000099FEF7E3FFBDE8F883000012141F5F3A
:1012800012D3363FFF51D83F2DE9F04102460025E9
:101290000026002000230024002791F803C00CF052
:1012A0000F0591F803C00CF0100CBCF1000F03D037
:1012B00091F802C04CEA050591F800C0BCF1000F9E
:1012C00031D0146800202BE04FF0010C0CFA00F331
:1012D000B1F800C00CEA03069E4220D183004FF013
:1012E0000F0C0CFA03F7BC4305FA03FC4CEA0404A8
:1012F00091F803C0BCF1280F06D14FF0010C0CFA95
:1013000000FCC2F814C00AE091F803C0BCF1480F19
:1013100005D14FF0010C0CFA00FCC2F810C0401CC3
:101320000828D1D31460B1F800C0BCF1FF0F34DD40
:10133000546800202EE000F1080C4FF0010808FA74
:101340000CF3B1F800C00CEA03069E4221D18300E1
:101350004FF00F0C0CFA03F7BC4305FA03FC4CEA00
:10136000040491F803C0BCF1280F05D100F1080C6A
:1013700008FA0CF8C2F8148091F803C0BCF1480FC9
:1013800007D100F1080C4FF0010808FA0CF8C2F878
:101390001080401C0828CED35460BDE8F0810000C6
:1013A000F0B50A46002300240021002500F0004685
:1013B000B6F1004F02D11D4EF16901E01B4E71687C
:1013C000C0F3034583B200F44016B6F5401F08D1C0
:1013D00021F07061154E766826F07066134F7E60BE
:1013E00012E000F48016B6F5801F06D1032606FA37
:1013F00005F4A14341F0706106E0460D360103FAA1
:1014000006F6B14341F0706122B1460D360103FA90
:1014100006F6314300F00046B6F1004F02D1034E0C
:10142000F16101E0014E7160F0BD0000000001407B
:10143000416170470161704700BFFEE710B50020B1
:101440000F4908600F48006820F070400D4908609F
:101450000846006840F04050086000200A49C1F882
:101460009C01022002F0C2F8012005490860022018
:1014700002F0BCF800200449C1F8980110BD00003A
:1014800098812142000C01400080214208B50121D1
:10149000082001F07FFBC020ADF8000010208DF87F
:1014A000030003208DF8020069460B48FFF7ECFEAD
:1014B0000820ADF8000048208DF8030003208DF8C7
:1014C000020069460448FFF7DFFE01200349086077
:1014D0000349C1F89C0108BD000C014098812142DC
:1014E0000080214210B500200F4908600F480068B5
:1014F00020F070400D4908600846006840F04050F8
:10150000086001200A49C1F89C01022002F06EF82F
:10151000012005490860022002F068F80020044913
:10152000C1F8980110BD000098812142000C0140D3
:101530000080214270B5054600241748006820F05D
:101540007040154908600846006840F00040086097
:10155000002616E0002011490860022002F046F83B
:1015600001200F49C1F898016006040E0B487C3831
:10157000006808B1601CC4B2012002F037F8701C8A
:10158000C6B2082EE6DB15B9FFF7ACFF01E0FFF7A6
:1015900055FF204670BD0000000C0140988121429B
:1015A0000080214270B504461548006820F0704064
:1015B000134908600846006840F040500860002069
:1015C00010490860002517E0E0090E49091D086070
:1015D0006006040E022002F009F801200A49C1F851
:1015E0009801022002F002F800200649086002205B
:1015F00001F0FCFF681CC5B2082DE5DB70BD0000E2
:10160000000C0140988121420080214210B50F4812
:10161000006820F070400D4908600846006840F0FE
:101620004050086001200A4908600A49C1F8980141
:10163000042001F0DBFF002005490860042001F0D0
:10164000D5FF00200349C1F8980110BD000C0140EE
:101650009C8121420080214210B50F48006820F093
:1016600070400D4908600846006840F0405008602E
:1016700000200A4908600A49C1F89C01042001F0D1
:10168000B5FF0120054908600549C1F89C01042007
:1016900001F0ACFF10BD0000000C01409881214218
:1016A0000080214210B500241448006820F07040EA
:1016B000124908600846006840F0004008600120B8
:1016C0000F49086001F092FF01200E49C1F898010E
:1016D00001F08CFF07E0601CC4B2FA2C03DDFFF7B9
:1016E000BBFF012010BD0648803800680028F2D1F9
:1016F0000349091F086000BFF4E70000000C014027
:101700009C8121420080214201B58CB001F00EFA8B
:101710000B90FE4800680A90FC4840680990FB481E
:10172000806808900B98C06805900B98C06804907A
:101730000599FEF783FD07900B98806803900B983E
:10174000806802900399FEF779FD05900B98406838
:1017500001900B98406800900199FEF76FFD03908F
:101760000B98006801900B98006800900199FEF7B3
:1017700065FD02900399FEF709FD04900599FEF7B7
:1017800057FD06900799FEF753FDE14908600B9855
:10179000C06804900B98006803900499FEF74EFD12
:1017A00006900B98806804900B9840680390049909
:1017B000FEF744FD05900699FEF7E8FC4FF08041E6
:1017C0000790FEF73BFDD24948600B988068049073
:1017D0000B98006803900499FEF730FD06900B9873
:1017E000C06804900B98406803900499FEF726FDAA
:1017F00005900699FEF71CFD4FF080410790FEF71B
:101800001DFDC34988600B98C06804900B98006860
:1018100003900499FEF712FD06900B9880680490DF
:101820000B98406803900499FEF708FD059006990F
:10183000FEF7FEFC4FF080410790FEF7FFFCB44935
:10184000C8600B98C06805900B98C0680490059913
:10185000FEF7F4FC07900B98806803900B98806863
:1018600002900399FEF7EAFC05900B9840680190FE
:101870000B98406800900199FEF7E0FC03900B98EC
:10188000006801900B98006800900199FEF7D6FC63
:1018900002900399FEF7CCFC04900599FEF776FCC4
:1018A00006900799FEF7C4FC994908610B984068B7
:1018B00004900B98006803900499FEF7BFFC069013
:1018C0000B98C06804900B98806803900499FEF709
:1018D000B5FC05900699FEF759FC4FF08041079042
:1018E000FEF7ACFC8A4948610B98806804900B981D
:1018F000006803900499FEF7A1FC06900B98C0685D
:1019000004900B98406803900499FEF797FC0590AB
:101910000699FEF73BFC4FF080410790FEF78EFCE6
:101920007B4988610B98406804900B98006803908D
:101930000499FEF783FC06900B98C06804900B98FE
:10194000806803900499FEF779FC05900699FEF7EC
:101950006FFC4FF080410790FEF770FC6C49C86146
:101960000B98C06805900B98C06804900599FEF725
:1019700065FC07900B98806803900B988068029034
:101980000399FEF75BFC05900B98406801900B985B
:10199000406800900199FEF751FC03900B98006895
:1019A00001900B98006800900199FEF747FC0290A7
:1019B0000399FEF73DFC04900599FEF739FC06906B
:1019C0000799FEF7E3FB524908620846006A0146A0
:1019D00005900898FEF732FC07904D484069014693
:1019E00003900998FEF72AFC059049488068014653
:1019F00003900A98FEF722FC04900599FEF7C6FBB7
:101A000006900799FEF7C2FB4249C8674048C06983
:101A1000014605900898FEF711FC07903C480069C4
:101A2000014603900998FEF709FC05903848406884
:101A3000014603900A98FEF701FC04900599FEF711
:101A4000A5FB06900799FEF7A1FB3249C864304810
:101A50008069014605900898FEF7F0FB07902C4836
:101A6000C068014603900998FEF7E8FB05902848F6
:101A70000068014603900A98FEF7E0FB0490059980
:101A8000FEF784FB06900799FEF780FB2149C861A9
:101A90000846C06F2049079000F0BCFF1D49C1F8FF
:101AA00080000846C06C1D49079000F0B3FF19493B
:101AB00008650846C0691A49079000F0ABFF154950
:101AC00008620846B0F8920000287DD10846D0F898
:101AD00080000590FEF746FDCDE906010D49603115
:101AE000D1E90A01CDE90401DDE90623FEF716FC80
:101AF000084A6032C2E90A010648006D0590FEF707
:101B000031FDCDE9060103490CE00000B0020020E0
:101B1000480100207001002008020020400200203F
:101B200078020020D1E91601CDE90401DDE90623A0
:101B3000FEF7F4FBA64AC2E916011046006A0590BA
:101B4000FEF710FDCDE90601A149D1E90A01CDE971
:101B50000401DDE90623FEF7E1FB9D4AC2E90A0123
:101B60001046B0F89000401C80B21146A1F89000D9
:101B7000B0F5967F31DB6031D1E90A010022954B47
:101B8000CDE90401FEF771FCCDE90601FEF7FDFC8D
:101B90008F49C1F88400D1E9160100228D4BCDE9AF
:101BA0000401FEF762FCCDE90601FEF7EEFC884970
:101BB0004865D1E90A010022864BCDE90401FEF710
:101BC00054FCCDE9060100E011E0FEF7DEFC80499F
:101BD00048620120A1F8920009E07D48D0F8801009
:101BE000C0F88410016D4165006A794948627848FF
:101BF000D0F8840007907648D0F8800006900799C6
:101C0000FEF716FB7249C1F880000846006D0146D8
:101C100007900998FEF70CFB6D4908650846006AB5
:101C2000014607900A98FEF703FB694908620846D7
:101C3000D0F88000014607906748FEF7C3FC0DD23C
:101C40006348D0F8800065490790FEF7BBFC05D2D9
:101C500000215F48C0F88010416611E05C48D0F870
:101C60008000014606900C98FEF7E8FA0790584865
:101C7000406E014606900798FEF788FA5449486678
:101C800057480068014607905648FEF79BFC2CD247
:101C90005348006854490790FEF794FC25D84C48F7
:101CA000006D014607904C48FEF78CFC0BD248486B
:101CB000006D4E490790FEF785FC04D20021444890
:101CC0000165416315E04248006D014606900C989D
:101CD000FEF7B4FA07903E48406B0146069007981D
:101CE000FEF754FA3A49486303E000213848016599
:101CF00041633B484068014607903A48FEF762FC62
:101D00002CD23748406838490790FEF75BFC25D84D
:101D10002F48006A014607902F48FEF753FC0BD26C
:101D20002B48006A31490790FEF74CFC04D2002092
:101D300027490862486015E02548006A0146069078
:101D40000C98FEF77BFA0790214840680146069000
:101D50000798FEF71BFA1E49486003E000201C4963
:101D6000086248601A48406E80F0004006900C9966
:101D7000FEF764FA07901648006E01460690079831
:101D8000FEF704FA124908660846406B01460690C1
:101D90000C98FEF753FA07900D48006B0146069029
:101DA0000798FEF7F3F90A490863084640680146B8
:101DB00006900C98FEF742FA079005480068014625
:101DC00006900798FEF7E2F9014908600DB000BDE2
:101DD0007001002000C072403333B3BE9A99993E1F
:101DE000100100200000A0C00000A0403333B33E2B
:101DF00010B5064A0649074800F0B0F9064B074AF5
:101E00000749084800F02CF910BD0000E00200204E
:101E1000E6000020E0000020D4020020C8020020DC
:101E2000BC020020B002002070B5044625460EE03A
:101E3000002008490860642001F0B2FB0120064937
:101E4000C1F8A001642001F0ABFB681EC5B2002DF3
:101E5000EEDC70BDA00121420000214201200149B9
:101E600008607047A00121420020014908607047C6
:101E7000A001214208B501212C2000F08BFE012198
:101E8000084600F087FE01211F48FFF789FA4FF44A
:101E90000870ADF8000010208DF8030003208DF8C5
:101EA000020069461948FFF7EFF94FF40871174827
:101EB000FFF7BEFA4FF40140ADF8000010208DF896
:101EC000030003208DF8020069461148FFF7DCF992
:101ED0004FF400410E48FFF7ABFA4FF480710C4805
:101EE000FFF7A8FA0420ADF8000010208DF80300D9
:101EF00003208DF8020069460648FFF7C5F9042162
:101F00000448FFF795FA08BD00023000000C0140BC
:101F1000000801400014014000B501F0CFFA01F0C3
:101F2000D7FA01F0DFFA01F0E7FA00BD70B500253D
:101F300000247521D02000F0B7FE0546CDB900BFC2
:101F400014E07521D02000F0AFFE60B9642001F0EC
:101F500027FB092C08D105E006A001F0D7FA0120E3
:101F6000FFF762FFF8E703E0601CC4B20A2CE8DB6D
:101F700000BF70BD6D70753630353020696E697484
:101F8000206572726F72212F722F6E0030B587B08C
:101F900004460025182101A8FEF7EDF800BF34E043
:101FA0002C492D4800F082F82B49B1F90010019816
:101FB000084401902849B1F902100298084402909F
:101FC0002549B1F904100398084403902149B1F957
:101FD00000100498084404901E49B1F902100598B5
:101FE000084405901B49B1F904100698084406906E
:101FF0001A48006880F4807018490860FFF78CFF69
:10200000142001F0CDFA681CC5B2192DC8DB1921C6
:10201000019890FBF1F000B22080029890FBF1F063
:1020200000B26080039890FBF1F0C0F5005000B260
:10203000A080049890FBF1F000B2E080059890FB3E
:10204000F1F000B22081069890FBF1F000B26081BF
:1020500007B030BDE6000020E00000200C08014081
:1020600010B50468146044685460846894600C6817
:102070001C604C685C608C689C6010BD10B5FFF7FC
:1020800005FA0A2001F08CFAFFF750FF00F0D7F8AC
:1020900001A001F03BFA10BD4D50553630353020CF
:1020A0006973204F4B210D0A000000002DE9F04F0D
:1020B00085B004460D4600200190029003900490E4
:1020C000002780468346814682460090002601AB69
:1020D0000E223B21D02000F007FE9DF805009DF860
:1020E000041040EA01299DF807009DF8061040EA17
:1020F000012A9DF809009DF8081040EA012000908F
:102100009DF80D009DF80C1040EA01279DF80F0086
:102110009DF80E1040EA01289DF811009DF810105E
:1021200040EA012B4E46CAF10009B2463E46C8F1CC
:102130000007B0460FFA89F020800FFA8AF060801D
:10214000009800B2A08038B228800FFA88F068802A
:102150000FFA8BF0A88005B0BDE8F08F2DE9F04FA5
:1021600087B005460E461446002003900490059063
:102170000690804681460290824683460190002761
:1021800003AB0E223B21D02000F0AEFD9DF80D00E8
:102190009DF80C1040EA0120B4F90010A0EB010AF0
:1021A0009DF80F009DF80E1040EA0120B4F90210CE
:1021B000A0EB010B9DF811009DF8101040EA0120E2
:1021C000B4F90410084401909DF815009DF814100E
:1021D00040EA0120B4F90610A0EB01089DF81700B1
:1021E0009DF8161040EA0120B4F90810A0EB01098F
:1021F0009DF819009DF8181040EA0120B4F90A1062
:10220000401A02905746CBF1000ABB464746C9F137
:102210000008B9460FFA8AF028800FFA8BF0688020
:10222000019800B2A8800FFA88F030800FFA89F088
:102230007080029800B2B08007B0BDE8F08F10B592
:1022400000226B21D02001F01EF901221921D0209B
:1022500001F019F901221A21D02001F014F90D2200
:102260002421D02001F00FF9C8226A21D02001F0EA
:102270000AF932223721D02001F005F910221B2162
:10228000D02001F000F908221C21D02001F0FBF839
:1022900010BD00000FB5A5B0FE4827990068FDF7F6
:1022A000CDFF0D90FC4826990068FDF7C7FF0B9005
:1022B000FA48006880F0004009902599FDF7BEFFBC
:1022C0000A900B99FDF7B4FF0C900D99FDF7B0FF44
:1022D0004FF07C510E90FDF7B1FF1F90ED4826990D
:1022E0000068FDF7ABFF0D90EB4827990068FDF7FC
:1022F000A5FF0B90EA4801682598FDF79FFF0A901B
:102300000B99FDF743FF0C900D99FDF791FF4FF0EE
:102310007C510E90FDF792FF1E90DE4801682598D3
:10232000FDF78CFF0D90DD4827990068FDF786FFCB
:102330000B90DB4826990068FDF780FF0A900B9907
:10234000FDF776FF0C900D99FDF720FF4FF07C51C3
:102350000E90FDF773FF1D90CF4801682598FDF79B
:102360006DFF0D90CD4826990068FDF767FF0B9033
:10237000CB4827990068FDF761FF0A900B99FDF79C
:1023800005FF0C900D99FDF753FF4FF07C510E9017
:10239000FDF754FF1C9000212898FEF713F909D18E
:1023A00000212A98FEF70EF904D100212B98FEF7A0
:1023B00009F97DD02B990846FDF740FF0D902A9929
:1023C0000846FDF73BFF0B9028990846FDF736FFBE
:1023D0000A900B99FDF7DAFE0C900D99FDF7D6FEE9
:1023E0000E9001F037F9249024992898FDF726FFE4
:1023F000289024992A98FDF721FF2A9024992B9858
:10240000FDF71CFF2B90A64801684FF08040FDF7B8
:1024100015FF1B90A14801684FF08040FDF70EFFAB
:102420001A909D4801684FF08040FDF707FF199012
:10243000984801684FF08040FDF700FF18909848D9
:1024400001684FF08140FDF7F9FE1790934801684D
:102450004FF08140FDF7F2FE16908F4801684FF073
:102460008140FDF7EBFE15908C4801684FF08240EB
:10247000FDF7E4FE1490884801684FF08240FDF7B4
:10248000DDFE1390864801680068FDF7D7FE1290C4
:10249000824801680068FDF7D1FE11907E4801680E
:1024A0000068FDF7CBFE10907A480168006800E0F4
:1024B00044E1FDF7C3FE0F902A991A98FDF7BEFE7E
:1024C0000E9011991798FDF7B9FE0C90289919985C
:1024D000FDF7B4FE0A9010991798FDF7AFFE09902A
:1024E0000A99FDF753FE0B900C99FDF74FFE0D90E6
:1024F0000E99FDF79DFE23902B991698FDF79EFEF1
:102500000E9010991498FDF799FE0C90119914985B
:10251000FDF794FE0A902A991B98FDF78FFE07900D
:102520004FF081401299FDF789FE03905B480168E6
:102530000398FDF783FE059028991898FDF77EFE15
:1025400003900F991698FDF779FE02900399FDF715
:102550006FFE04900599FDF719FE06900799FDF7A7
:1025600067FE08901699FDF763FE09900A99FDF73A
:102570000DFE0B900C99FDF709FE0D900E99FDF7DD
:1025800005FE22902B991598FDF758FE0E90109994
:102590001398FDF753FE0C9011991398FDF74EFE1A
:1025A0000A902A991898FDF749FE07900F991598F7
:1025B000FDF744FE059028991B98FDF73FFE039018
:1025C0004FF081401299FDF739FE019032480168C1
:1025D0000198FDF733FE02900399FDF7D7FD0490B3
:1025E0000599FDF7D3FD06900799FDF721FE0890A8
:1025F0001599FDF71DFE09900A99FDF7C7FD0B908F
:102600000C99FDF7C3FD0D900E99FDF7BFFD2190CC
:102610002A991998FDF712FE0E904FF081401099FB
:10262000FDF70CFE0A901B4801680A98FDF706FEAC
:102630000C9028991A98FDF701FE0A904FF08140FE
:102640001199FDF7FBFD0890124801680898FDF705
:10265000F5FD09900A99FDF7EBFD0B900C99FDF73C
:1026600095FD0D900E99FDF7E3FD20902099084609
:10267000FDF7E4FD0D9021990846FDF7DFFD0B9075
:1026800022990846FDF7DAFD099023990846FDF7DF
:10269000D5FD07E058000020540000205000002025
:1026A0004C00002008900999FDF770FD0A900B99E5
:1026B000FDF76CFD0C900D99FDF768FD0E9000F094
:1026C000C9FF2490DDE92301FDF7B8FD239024998B
:1026D0002298FDF7B3FD229024992198FDF7AEFDD5
:1026E000219024992098FDF7A9FD2090C1482399B5
:1026F0000068FDF7A3FD0E901F99FDF79CFD1F904C
:10270000BC4822990068FDF799FD0E901E99FDF7CF
:1027100092FD1E90B74821990068FDF78FFD0E903D
:102720001D99FDF788FD1D90B24820990068FDF7BE
:1027300085FD0E901C99FDF77EFD1C902C991F982D
:10274000FDF77CFD0E90AC4801680E98FDF71EFD6C
:10275000A94908602C991E98FDF770FD0E90A748B6
:1027600001680E98FDF712FDA44908602C991D9888
:10277000FDF764FD0E90A24801680E98FDF706FD76
:102780009F4908602C991C98FDF758FD0E909D48B4
:1027900001680E98FDF7FAFC9A490860084601683E
:1027A0000068FDF74BFD0D90954801680068FDF746
:1027B00045FD0B90914801680068FDF73FFD0990C9
:1027C0008D4801680068FDF739FD08900999FDF70B
:1027D000DDFC0A900B99FDF7D9FC0C900D99FDF7E3
:1027E000D5FC0E9000F036FF2490834824990068B1
:1027F000FDF724FD80490860804824990068FDF7B2
:102800001DFD7E4908607E4824990068FDF716FD8D
:102810007B4908607B4824990068FDF70FFD7949E2
:102820000860084601684FF08040FDF707FD0890FA
:10283000744801680898FDF701FD0A907048016826
:102840004FF04040FDF7FAFC08906D480168089889
:10285000FDF7F4FC09900A99FDF7EAFC4FF07E5170
:102860000B90FDF793FC0D90634801684FF080409A
:10287000FDF7E4FC0990634801680998FDF7DEFC68
:102880000B905E4801684FF08040FDF7D7FC09903F
:102890005B4801680998FDF7D1FC0A900B99FDF798
:1028A00075FC0C900D99FEF7EBFB57490E90FDF768
:1028B000C5FC56498860504801684FF08040FDF7DC
:1028C000BDFC0A904E4801680A98FDF7B7FC0C90D1
:1028D0004A4801684FF04040FDF7B0FC0A90494873
:1028E00001680A98FDF7AAFC0B900C99FDF74EFCC5
:1028F0000D90FEF721FB44490E90FDF79FFC4349E4
:1029000008603F4801684FF08040FDF797FC089051
:102910003B4801680898FDF791FC0A903748016828
:102920004FF04040FDF78AFC089034480168089851
:10293000FDF784FC09900A99FDF77AFC4FF07E516F
:102940000B90FDF723FC0D902B4801684FF0804061
:10295000FDF774FC0990294801680998FDF76EFCA1
:102960000B90274801684FF08040FDF767FC099005
:10297000244801680998FDF761FC0A900B99FDF75E
:1029800005FC0C900D99FEF77BFB1F490E90FDF79F
:1029900055FC1E4948600846008C401C80B20884E3
:1029A00040F6C411884219DD0846184908840846D3
:1029B000C0680E90084600680D900E99FDF738FC2F
:1029C00012490860084600690E90084640680D905C
:1029D0000E99FDF72DFC0D49486009E00B48806910
:1029E0000A49486108460068C860084640680861AE
:1029F00029B000BD480000204C00002050000020FD
:102A0000540000205800002033336542100100209C
:102A100000BFFEE72DE9F04781460C46218D54F8B2
:102A20002100FDF79FFD0546D4E90C733A46FDF7FA
:102A300019FDC4E90C01208D44F82090218D54F833
:102A40002100FDF78FFD0746D4E90C532A46FDF718
:102A500065FCC4E90C01208D401C80B220850A2849
:102A600003DB0020208501206085608D58B10022A5
:102A7000074BD4E90C512846FDF7F7FC0746FDF754
:102A800084FDBDE8F087208D401E54F82000F8E753
:102A900000002440704710B54FF4A06000F03AF8F1
:102AA00010BD000070B5002100230F22C47804B3CC
:102AB000154C246804F4E064C4F5E064210AC1F113
:102AC0000403CA40447804FA03F184781440214393
:102AD00009010E4C0678A155047804F01F05012465
:102AE000AC4005786D11AD0005F1E025C5F8004159
:102AF00009E0047804F01F050124AC40044D067879
:102B0000761145F8264070BD0CED00E000E400E0D1
:102B100080E100E002490143024A11607047000071
:102B20000000FA050CED00E0704700000048704717
:102B30003800002029B1064A52690243044B5A6109
:102B400004E0034A52698243014B5A617047000016
:102B50000010024029B1064AD2690243044BDA61EF
:102B600004E0034AD2698243014BDA6170470000F6
:102B70000010024029B1064A12690243044B1A614F
:102B800004E0034A12698243014B1A617047000056
:102B90000010024029B1064A92690243044B9A612F
:102BA00004E0034A92698243014B9A617047000036
:102BB0000010024029B1064AD2680243044BDA6091
:102BC00004E0034AD2688243014BDA607047000098
:102BD0000010024030B500210022002400232D4DBA
:102BE0006D6805F00C0121B1042905D0082923D115
:102BF00005E0294D056022E0274D05601FE0254DC9
:102C00006D6805F47012234D6D6805F4803402255B
:102C100005EB92421CB9214D554305600BE01D4D5B
:102C20006D6805F400351DB11C4D5543056002E08B
:102C3000194D5543056002E0174D056000BF00BF08
:102C4000144D6D6805F0F0010909154D6B5C0568C0
:102C5000DD4045600F4D6D6805F4E061090A104DD7
:102C60006B5C4568DD4085600A4D6D6805F4605118
:102C7000C90A0B4D6B5C4568DD40C560054D6D684C
:102C800005F44041890B074D6B5CC568B5FBF3F556
:102C9000056130BD0010024000127A0000093D00BD
:102CA000EF000020FF00002070B504460D4600260E
:102CB000FEF7ACFC2046FEF775FCFEF7F3FC284659
:102CC000FEF770FCFEF7EEFCFEF7A0FC611CC8B23C
:102CD000FEF768FCFEF7E6FC0020FEF72BFC06463C
:102CE000FEF7BAFC304670BD2DE9F0410746884634
:102CF00015461E46FEF78AFC3846FEF753FCFEF7E3
:102D0000D1FC4046FEF74EFCFEF7CCFCFEF77EFC05
:102D1000791CC8B2FEF746FCFEF7C4FC00240DE0A7
:102D2000681EA04204D00120FEF704FC305503E0E9
:102D30000020FEF7FFFB3055601CC4B2AC42EFDB55
:102D4000FEF78AFCBDE8F08170471FB504460121FB
:102D50000846FFF7FFFE0020ADF80A004720ADF857
:102D60000400ADF808400020ADF806008DF80C0016
:102D700001A94FF0804000F087F91C208DF8000079
:102D800000208DF8010001208DF802008DF803006D
:102D90006846FFF787FE0121880700F04CF9012201
:102DA0001146900700F067F900214FF0804000F0D5
:102DB00045F91FBD10B500F001F810BD0CB500209D
:102DC000019000903348006840F480303149086039
:102DD00000BF3048006800F4003000900198401CAB
:102DE0000190009818B90198B0F5A06FF1D1294869
:102DF000006800F4003010B10120009001E00020D4
:102E000000900098012843D12348006840F010004A
:102E1000214908600846006820F003000860084661
:102E2000006840F0020008601A484068194948608C
:102E30000846406848600846406840F48060486042
:102E40000846406820F47C1048600846406840F41A
:102E5000E81048600846006840F08070086000BFD5
:102E60000C48006800F000700028F9D0094840685C
:102E700020F00300074948600846406840F002001F
:102E8000486000BF0348406800F00C000828F9D1F2
:102E90000CBD00000010024000200240042808D1B0
:102EA0004FF0E021096941F004014FF0E022116187
:102EB00007E04FF0E021096921F004014FF0E02222
:102EC00011617047704710B50121880700F0B6F80E
:102ED00010BD000010B51348006840F00100114912
:102EE000086008464068104908400E494860084696
:102EF00000680E4908400B4908600846006820F445
:102F0000802008600846406820F4FE0048604FF4C6
:102F10001F008860FFF74EFF4FF000600449086013
:102F200010BD0000001002400000FFF8FFFFF6FE99
:102F300008ED00E010B50121880700F08BF80028AB
:102F400035D01B480068401C194908601948808822
:102F5000401C1849888008464088401C488000BFB3
:102F6000FEF746FF144800F0F9F80446FDF716FC9A
:102F7000124800F0F3F80446FEF7C6FB0C48006860
:102F80001421B0FBF1F201FB120060B9094800788E
:102F900020F00100401C074908700846007820F026
:102FA0000200801C08700121880700F041F810BD64
:102FB0008C000020000000209000002098000020DD
:102FC00010B50121044800F045F818B1012102486C
:102FD00000F02EF810BD0000000C004010B50121DB
:102FE000104800F037F8D8B101210E4800F020F861
:102FF00000200D4908700FE00C480B49097850F883
:103000002100401E0949084A127841F8220006486A
:103010000078401C04490870034800780B28EBDB5B
:1030200010BD000000100040880000205C0000205F
:10303000CA4302827047CA430282704721B10288A4
:1030400042F00102028004E002884FF6FE731A404B
:103050000280704730B50246002000230024158A04
:1030600005EA0103958905EA010413B10CB10120B9
:1030700000E0002030BD1AB183890B43838102E058
:1030800083898B4383817047002202881D4B9842BD
:103090000ED01D4B98420BD0B0F1804F08D01B4B87
:1030A000984205D01A4B984202D01A4B984204D14C
:1030B0004FF68F731A404B881A43174B984207D02C
:1030C000164B984204D04FF6FF431A40CB881A4360
:1030D00002808B8883850B8803850A4B98420BD02E
:1030E000094B984208D00E4B984205D00D4B9842A0
:1030F00002D00D4B984201D10B7A038601238382C3
:1031000070470000002C01400034014000040040E2
:1031100000080040000C0040001000400014004077
:1031200000400140004401400048014070B54FF0AC
:103130008041888CFDF711FA06460649FDF7B0F884
:10314000044605490868FDF708FA05462146FDF7DB
:103150001DF870BD00007A448C00002070B5044654
:1031600020686060FFF7E2FF2060D4E90001FDF70E
:103170005FF805460149FDF793F870BD00007A44F9
:1031800010B5002440F22551384800F0DFF800283F
:103190006BD0364800F070F9C4B235480078401C56
:1031A0003349087008460078012804D0022812D05C
:1031B00018284AD137E0412C09D12E48008840F424
:1031C00000402C49088000202B49086002E00020C4
:1031D0002849088048E0422C06D12648008840F45F
:1031E0008040244908801DE0432C06D121480088F6
:1031F00040F400501F49088014E0442C06D11D48BB
:10320000008840F480501B4908800BE0452C06D113
:103210001848008840F400601649088002E0002049
:103220001449088020E0452C03D000201149088073
:103230000AE01048008840F480600E4908800020B1
:103240000B4908700D4908700EE00D480B490978CC
:1032500044540A480078401C084908700548008812
:10326000401C0449088000BF00BF10BD0038014069
:103270000E0100200C010020A00121420F010020BE
:103280006004002021B1828942F40052828104E06E
:1032900082894DF6FF731A40828170471AB1838A82
:1032A0000B43838202E0838A8B4383827047000052
:1032B00010B504462048844209D101218803FFF754
:1032C00079FC00214FF48040FFF774FC32E01B488A
:1032D000844209D101214804FFF74CFC00214FF43E
:1032E0000030FFF747FC25E01548844209D1012151
:1032F0008804FFF73FFC00214FF48020FFF73AFCE1
:1033000018E01048844209D10121C804FFF732FCBB
:1033100000214FF40020FFF72DFC0BE00A48844207
:1033200008D101210805FFF725FC00214FF480108A
:10333000FFF720FC10BD00000038014000440040B1
:1033400000480040004C00400050004070B502466C
:10335000002400230025002040F66A16B14200D167
:1033600000BFC1F3421501F01F03012606FA03F363
:10337000012D02D19689334006E0022D02D1168A32
:10338000334001E0968A33400C12012606FA04F419
:103390001688344013B10CB1012000E0002070BD4C
:1033A0002DE9F04786B005460E460024A24600BF30
:1033B000A1460027B08900B100BF2F462C8A4CF6E9
:1033C000FF700440F08804432C82AC894EF6F31061
:1033D0000440B08831890843718908430443AC81B3
:1033E000AC8A4FF6FF400440B0890443AC8201A888
:1033F000FFF7F0FB1F48874202D1DDF810A001E083
:10340000DDF80CA0A88900F4004040B10AEBCA0026
:1034100000EB0A1031684900B0FBF1F807E00AEB55
:10342000CA0000EB0A1031688900B0FBF1F8642093
:10343000B8FBF0F004012009642101FB1089A88980
:1034400000F4004040B1322000EBC900B0FBF1F0C5
:1034500000F00700044308E0322000EB091064216B
:10346000B0FBF1F000F00F0004432C8106B0BDE882
:10347000F08700000038014001468888C0F308004A
:10348000704700BFFEE770B506460C461546FEF7CE
:10349000BDF83046FEF786F8FEF704F92046FEF741
:1034A00081F8FEF7FFF82846FEF77CF8FEF7FAF8F9
:1034B000FEF7D2F80A2000F073F870BD03480068E8
:1034C00080F4004001490860704700000C0801408A
:1034D0000348006880F400700149086070470000EC
:1034E0000C0C01400348006880F02000014908608E
:1034F000704700000C0C01400348006880F0040095
:1035000001490860704700000C140140014A02495B
:1035100000F013B8393600080801002002E008C89E
:10352000121F08C1002AFAD170477047002001E03D
:1035300001C1121F002AFBD170472DE9F041164648
:103540000F460446002503E03946B047641C6D1C55
:1035500020780028F8D12846BDE8F08110B56FF03A
:103560000400FFF79BFC0A4800680A49B0FBF1F031
:10357000094908700846007800EB4001C1EBC01013
:103580004FF6FF7101EAC0000449088010BD000039
:103590001000002000127A00040100200601002023
:1035A0000146114A12884A434FF0E0235A61002233
:1035B0009A611A46126942F001021A6100BF4FF087
:1035C000E022106900F001021AB100F48032002AF2
:1035D000F5D04FF0E022126922F001024FF0E02313
:1035E0001A6100229A617047060100200146114AC3
:1035F00012784A434FF0E0235A6100229A611A463A
:10360000126942F001021A6100BF4FF0E022106916
:1036100000F001021AB100F48032002AF5D04FF018
:10362000E022126922F001024FF0E0231A61002229
:103630009A6170470401002000BF054A128802F019
:103640004002002AF9D0C2B2014B1B1D1A807047FC
:10365000003801402DE9F04704464FF07C512046E8
:10366000FCF7ECFD814625462E460C48A0EB66068D
:10367000354629464846FCF7E1FD82462946FCF7D7
:10368000DDFD80464FF07F51FCF7D5FD074629460A
:10369000FCF7D4FD05462846BDE8F087DF59375FC3
:1036A00086B0FDF709FAFFF70EFC37E01C480078FA
:1036B000C0F34000D0B11A48007820F00200184949
:1036C00008706422174890F97400164B03F16001EA
:1036D000CDE90213CDE90402181D2C396433124AD6
:1036E000CDE90010111F081FFDF76EF80C48007897
:1036F00000F0010090B10A48007820F0010008496C
:1037000008700A48008800F4806038B107480188D2
:103710000748FDF7EBFA002004490880C6E70000DF
:103720000000002070010020180100200C01002082
:103730006004002010B592B00446012144F2040058
:10374000FFF728FA01210846FFF7F4F94C48FFF784
:10375000AFFD4FF40070ADF8440003208DF8460033
:1037600018208DF8470011A94648FDF78DFD4FF44C
:103770008060ADF8440004208DF8470011A941484D
:10378000FDF782FD0D944FF48050ADF83800002015
:10379000ADF83A004FF48060ADF83C000020ADF881
:1037A00040000C20ADF83E000DA93548FFF7F8FDAC
:1037B00001213348FFF766FD3148001D0190324872
:1037C0000290002003901820049000200590802093
:1037D0000690002007900890202009904FF4405058
:1037E0000A9000200B9001A92848FDF75EFA0122FB
:1037F00040212348FFF752FD012202212348FDF713
:103800004BFA01212148FDF725FA0F208DF83000F1
:1038100001208DF8310000208DF8320001208DF854
:1038200033000CA8FFF73EF9012202211748FDF7EB
:1038300033FA1348001D01901548029010200390A0
:1038400029200490002005908020069000200790F9
:10385000089009904FF440500A9000200B9001A965
:103860000A481438FDF721FA012280210448FFF7A5
:1038700015FD002105481438FDF7ECF912B010BD14
:103880000038014000080140A10400205800024017
:103890007804002000000000920E493CB10AC93CA7
:1038A0002BC3163D2EFB483D752B7B3D04A9963D51
:1038B00080B6AF3D36BDC83D2FBCE13D73B2FA3D89
:1038C00087CF093E8340163EB5AB223EA2102F3E65
:1038D000CF6E3B3EC2C5473E0115543E135C603E71
:1038E0007F9A6C3ECCCF783EC07D823E938E883EE0
:1038F000229A8E3E32A0943E86A09A3EE59AA03E41
:10390000128FA63ED47CAC3EEF63B23E2A44B83E52
:10391000491DBE3E15EFC33E53B9C93ECA7BCF3EDB
:103920004136D53E80E8DA3E4F92E03E7533E63EC2
:10393000BBCBEB3EEA5AF13ECBE0F63E275DFC3EC8
:10394000E4E7003F3D9C033F824B063F9BF5083F69
:103950006B9A0B3FDA390E3FCDD3103F2A68133FE5
:10396000D9F6153FC07F183FC6021B3FD17F1D3FD0
:10397000CBF61F3F9967223F25D2243F5636273F7B
:103980001594293F4AEB2B3FDE3B2E3FBB85303F52
:10399000C9C8323FF304353F233A373F4268393FC5
:1039A0003B8F3B3FF9AE3D3F67C73F3F70D8413F3C
:1039B00001E2433F03E4453F65DE473F12D1493F03
:1039C000F8BB4B3F029F4D3F207A4F3F3D4D513F4B
:1039D0004918533F31DB543FE595563F5348583F14
:1039E0006AF2593F1A945B3F532D5D3F05BE5E3F1F
:1039F0002146603F97C5613F5A3C633F59AA643FE7
:103A0000880F663FD86B673F3CBF683FA7096A3F96
:103A10000C4B6B3F5E836C3F93B26D3F9ED86E3F05
:103A200073F56F3F0809713F5213723F4714733F9C
:103A3000DD0B743F0BFA743FC6DE753F07BA763F65
:103A4000C58B773FF853783F9812793F9DC7793FF0
:103A500002737A3FBE147B3FCDAC7B3F283B7C3F5B
:103A6000C9BF7C3FAC3A7D3FCCAB7D3F23137E3F4B
:103A7000B0707E3F6DC47E3F580E7F3F6D4E7F3FDE
:103A8000AB847F3F0FB17F3F97D37F3F43EC7F3FB6
:103A900011FB7F3F0000803F11FB7F3F43EC7F3FE6
:103AA00097D37F3F0FB17F3FAB847F3F6D4E7F3F0A
:103AB000580E7F3F6DC47E3FB0707E3F23137E3F24
:103AC000CCAB7D3FAC3A7D3FC9BF7C3F283B7C3FC0
:103AD000CDAC7B3FBE147B3F02737A3F9DC7793FDD
:103AE0009812793FF853783FC58B773F07BA763FF6
:103AF000C6DE753F0BFA743FDD0B743F4714733F0E
:103B00005213723F0809713F73F56F3F9ED86E3FA5
:103B100093B26D3F5E836C3F0C4B6B3FA7096A3FCE
:103B20003CBF683FD86B673F880F663F59AA643F28
:103B30005A3C633F97C5613F2146603F05BE5E3FEB
:103B4000532D5D3F1A945B3F6AF2593F5348583FEB
:103B5000E595563F31DB543F4918533F3D4D513FAA
:103B6000207A4F3F029F4D3FF8BB4B3F12D1493F58
:103B700065DE473F03E4453F01E2433F70D8413FE4
:103B800067C73F3FF9AE3D3F3B8F3B3F4268393F00
:103B9000233A373FF304353FC9C8323FBB85303F36
:103BA000DE3B2E3F4AEB2B3F1594293F5636273FED
:103BB00025D2243F9967223FCBF61F3FD17F1D3F7F
:103BC000C6021B3FC07F183FD9F6153F2A68133F36
:103BD000CDD3103FDA390E3F6B9A0B3F9BF5083F70
:103BE000824B063F3D9C033FE4E7003F275DFC3EE0
:103BF000CBE0F63EEA5AF13EBBCBEB3E7533E63EF8
:103C00004F92E03E80E8DA3E4136D53ECA7BCF3E59
:103C100053B9C93E15EFC33E491DBE3E2A44B83EC6
:103C2000EF63B23ED47CAC3E128FA63EE59AA03E36
:103C300086A09A3E32A0943E229A8E3E938E883E73
:103C4000C07D823ECCCF783E7F9A6C3E135C603E56
:103C50000115543EC2C5473ECF6E3B3EA2102F3EDB
:103C6000B5AB223E8340163E87CF093E73B2FA3D84
:103C70002FBCE13D36BDC83D80B6AF3D04A9963DA1
:103C8000752B7B3D2EFB483D2BC3163DB10AC93C2D
:103C9000920E493C00000000920E49BCB10AC9BC1A
:103CA0002BC316BD2EFB48BD752B7BBD04A996BD4D
:103CB00080B6AFBD36BDC8BD2FBCE1BD73B2FABD85
:103CC00087CF09BE834016BEB5AB22BEA2102FBE61
:103CD000CF6E3BBEC2C547BE011554BE135C60BE6D
:103CE0007F9A6CBECCCF78BEC07D82BE938E88BEDC
:103CF000229A8EBE32A094BE86A09ABEE59AA0BE3D
:103D0000128FA6BED47CACBEEF63B2BE2A44B8BE4E
:103D1000491DBEBE15EFC3BE53B9C9BECA7BCFBED7
:103D20004136D5BE80E8DABE4F92E0BE7533E6BEBE
:103D3000BBCBEBBEEA5AF1BECBE0F6BE275DFCBEC4
:103D4000E4E700BF3D9C03BF824B06BF9BF508BF65
:103D50006B9A0BBFDA390EBFCDD310BF2A6813BFE1
:103D6000D9F615BFC07F18BFC6021BBFD17F1DBFCC
:103D7000CBF61FBF996722BF25D224BF563627BF77
:103D8000159429BF4AEB2BBFDE3B2EBFBB8530BF4E
:103D9000C9C832BFF30435BF233A37BF426839BFC1
:103DA0003B8F3BBFF9AE3DBF67C73FBF70D841BF38
:103DB00001E243BF03E445BF65DE47BF12D149BFFF
:103DC000F8BB4BBF029F4DBF207A4FBF3D4D51BF47
:103DD000491853BF31DB54BFE59556BF534858BF10
:103DE0006AF259BF1A945BBF532D5DBF05BE5EBF1B
:103DF000214660BF97C561BF5A3C63BF59AA64BFE3
:103E0000880F66BFD86B67BF3CBF68BFA7096ABF92
:103E10000C4B6BBF5E836CBF93B26DBF9ED86EBF01
:103E200073F56FBF080971BF521372BF471473BF98
:103E3000DD0B74BF0BFA74BFC6DE75BF07BA76BF61
:103E4000C58B77BFF85378BF981279BF9DC779BFEC
:103E500002737ABFBE147BBFCDAC7BBF283B7CBF57
:103E6000C9BF7CBFAC3A7DBFCCAB7DBF23137EBF47
:103E7000B0707EBF6DC47EBF580E7FBF6D4E7FBFDA
:103E8000AB847FBF0FB17FBF97D37FBF43EC7FBFB2
:103E900011FB7FBF000080BF11FB7FBF43EC7FBFE2
:103EA00097D37FBF0FB17FBFAB847FBF6D4E7FBF06
:103EB000580E7FBF6DC47EBFB0707EBF23137EBF20
:103EC000CCAB7DBFAC3A7DBFC9BF7CBF283B7CBFBC
:103ED000CDAC7BBFBE147BBF02737ABF9DC779BFD9
:103EE000981279BFF85378BFC58B77BF07BA76BFF2
:103EF000C6DE75BF0BFA74BFDD0B74BF471473BF0A
:103F0000521372BF080971BF73F56FBF9ED86EBFA1
:103F100093B26DBF5E836CBF0C4B6BBFA7096ABFCA
:103F20003CBF68BFD86B67BF880F66BF59AA64BF24
:103F30005A3C63BF97C561BF214660BF05BE5EBFE7
:103F4000532D5DBF1A945BBF6AF259BF534858BFE7
:103F5000E59556BF31DB54BF491853BF3D4D51BFA6
:103F6000207A4FBF029F4DBFF8BB4BBF12D149BF54
:103F700065DE47BF03E445BF01E243BF70D841BFE0
:103F800067C73FBFF9AE3DBF3B8F3BBF426839BFFC
:103F9000233A37BFF30435BFC9C832BFBB8530BF32
:103FA000DE3B2EBF4AEB2BBF159429BF563627BFE9
:103FB00025D224BF996722BFCBF61FBFD17F1DBF7B
:103FC000C6021BBFC07F18BFD9F615BF2A6813BF32
:103FD000CDD310BFDA390EBF6B9A0BBF9BF508BF6C
:103FE000824B06BF3D9C03BFE4E700BF275DFCBEDC
:103FF000CBE0F6BEEA5AF1BEBBCBEBBE7533E6BEF4
:104000004F92E0BE80E8DABE4136D5BECA7BCFBE55
:1040100053B9C9BE15EFC3BE491DBEBE2A44B8BEC2
:10402000EF63B2BED47CACBE128FA6BEE59AA0BE32
:1040300086A09ABE32A094BE229A8EBE938E88BE6F
:10404000C07D82BECCCF78BE7F9A6CBE135C60BE52
:10405000011554BEC2C547BECF6E3BBEA2102FBED7
:10406000B5AB22BE834016BE87CF09BE73B2FABD80
:104070002FBCE1BD36BDC8BD80B6AFBD04A996BD9D
:10408000752B7BBD2EFB48BD2BC316BDB10AC9BC29
:10409000920E49BC0000008000000000920A063F1A
:1040A000DB0FC93F920A863FC8400008000000208D
:1040B000100100001C350008D84100081001002044
:1040C000B00D00002C3500080000000000000101C8
:1040D000010000000000000000A24A0400000000EF
:1040E0000000000001020304060708096666064096
:1040F0000AD7233C00000000000000000000000080
:104100000000803F000000000000000000000000F0
:10411000CDCCCC3D0000803F00000000000000003E
:1041200000000000D0070000E8030000E8030000E2
:10413000DC050000D0070000D0070000D007000019
:10414000D0070000D0070000D007000000000000EA
:10415000000000000000000000000000000000005F
:10416000000000000000000000000000000000004F
:10417000000000000000000000000000000000003F
:1041800017B7513A17B7513B52499D3B17B7513BAF
:1041900017B7513A0000803F5C2041C0F77560407E
:1041A000287EECBF7FD9BD3E00000000000000006B
:1041B00000000000000000000000000102030401F4
:1041C00002030406070809020406080000000000B4
:0841D0000000000000000000E7
:0400000508000131BD
:00000001FF
